:100000000C94FD020C9444030C9444030C9444039C
:100010000C9444030C9444030C9444030C94440344
:100020000C9444030C9444030C9425250C946124F3
:100030000C94B11E0C9444030C9444030C9444039C
:100040000C9444030C941C1B0C9444030C94440324
:100050000C94041B0C94461E0C9444030C9444030F
:100060000C9444030C9444030C9444030C944403F4
:100070000C9444030C9444030C9444030C944403E4
:100080000C9423170C9444030C9444030C944403E1
:100090000C9444030C9444030C9444030C944403C4
:1000A0000C9444030C9444030C94440351067606C8
:1000B0007B06800685068A068F06940699069E06AC
:1000C000A306AA06AD06B006B306B606B906BC0678
:1000D000BF06C4061E071E0758075807AB07C70709
:1000E00059095909D207B008C108C108210F210FC9
:1000F000340F340F2A0F340F340F340F210F210F18
:100100002F0F340F340F2F0F7C22A3223924A32268
:100110003924EB220E233924FD23102429001E004C
:100120001F002000210022002300240025002600BB
:1001300027002D002E0000002A002B0014001A00BA
:100140000800150017001C0018000C001200130016
:100150002F0030003100E000040016000700090005
:100160000A000B000D000E000F00330034002800C1
:10017000E10000001D001B00060019000500110031
:100180001000360037003800E50000000151025130
:10019000E2002C00E600E7000251015135003A0070
:1001A0003B003C003D003E003F004000410042005B
:1001B00043004400450000004C0001000100010024
:1001C0004D0001000100010001000100010052008A
:1001D000AA00A900490001004A007E004C004F001F
:1001E00029002A000100A800AC00AE00AB0001000D
:1001F000010000000100010001004E00500051000C
:1002000028000100BE00BD00010000000100010047
:1002100001000100010001000100010035000100A2
:1002200001000100010001000100010001000100C6
:1002300001000100010000004C0001000100040069
:100240004D00010001000100010001000100520009
:10025000AA00A900010001004A0004004C014F015E
:1002600029002A010100A800AC00AE00AB0001008B
:10027000010000000100010001004B00500151008D
:1002800028000100BE00BD000100000001000100C7
:1002900001000100010001000100010032190A0003
:1002A000047F3F1F643214643214783C1E1E140A0B
:1002B0000500010101010101010101020202020226
:1002C00002020202030303030303030304040404FE
:1002D00004040405050505050606060606070707C6
:1002E000070708080808090909090A0A0A0B0B0B7D
:1002F0000C0C0C0D0D0D0E0E0E0F0F0F101011111A
:10030000111212131314141515161617171818199D
:10031000191A1A1B1B1C1D1D1E1E1F202021222204
:10032000232424252626272829292A2B2C2D2D2E47
:100330002F30313232333435363738393A3B3C3D61
:100340003E3F404142434445464748494A4C4D4E52
:100350004F50515354555658595A5B5D5E5F616218
:1003600064656668696B6C6D6F7072737577787AA7
:100370007B7D7E8082838587888A8C8E8F91939502
:1003800096989A9C9EA0A2A3A5A7A9ABADAFB1B326
:10039000B5B7BABCBEC0C2C4C6C9CBCDCFD1D4D606
:1003A000D8DBDDDFE2E4E7E9EBEEF0F3F5F8FAFDA8
:1003B000FFFFAA7F55402223252628292A2C2D2FEE
:1003C0003032333536383A3B3D3E4042434547496B
:1003D0004A4C4E5051535557595A5C5E60626466A0
:1003E00068696B6D6F71737577797B7D7F818385AC
:1003F00087898A8C8E90929496989A9C9E9FA1A3AE
:10040000A5A7A8AAACAEAFB1B3B4B6B8B9BBBCBED1
:10041000BFC1C2C3C5C6C7C9CACBCCCDCED0D1D24D
:10042000D2D3D4D5D6D7D7D8D9D9DADADBDBDBDC4F
:10043000DCDCDCDCDDDDDDDDDCDCDCDCDCDBDBDBFB
:10044000DADAD9D9D8D7D7D6D5D4D3D2D2D1D0CE5B
:10045000CDCCCBCAC9C7C6C5C3C2C1BFBEBCBBB960
:10046000B8B6B4B3B1AFAEACAAA8A7A5A3A19F9EDE
:100470009C9A98969492908E8C8A89878583817FA6
:100480007D7B79777573716F6D6B69686664626087
:100490005E5C5A5957555351504E4C4A4947454353
:1004A00042403E3D3B3A3836353332302F2D2C2AF0
:1004B00029282625232205010902A1018502090117
:1004C000A1000509190129051500250195057501EA
:1004D00081029501750381010501093009311581FA
:1004E000257F95027508810609381581257F9501BC
:1004F00075088106050C0A38021581257F9501755E
:10050000088106C0C005010980A101850319012ADF
:10051000B700150126B700950175108100C0050CC4
:100520000901A101850419012AA002150126A002D2
:10053000950175108100C005010906A10105071983
:10054000E029E715002501950875018102950175DF
:100550000881010507190029FF150026FF009506EF
:100560007508810005081901290595057501910295
:10057000950175039101C009023B00020100A0FA38
:1005800009040000010301010009211101000122F9
:1005900040000705810308000A0904010001030067
:1005A00000000921110100012281000705820320BA
:1005B000000A1201100100000008EDFE6060010059
:1005C00001020001160356003600300020005400DE
:1005D00079007000650020005200000018034B00F5
:1005E0004200200050006100720061006400690058
:1005F0007300650000000403090411241FBECFEF3F
:10060000DAE0DEBFCDBF04B603FE27C080918102D1
:1006100090918202A0918302B09184028730904B26
:10062000A740B04BD1F41092810210928202109236
:1006300083021092840214BE84B7877F84BF0FB6F2
:10064000F894A89580916000886180936000109272
:1006500060000FBEE0E0F8E3099511E0A0E0B1E032
:10066000EEEDFEE402C005900D92AA39B107D9F76C
:1006700022E0AAE9B1E001C01D92A138B207E1F77A
:100680000E94380B0C946D270C9400008F929F925F
:10069000AF92BF92CF92DF92EF92FF920F931F9390
:1006A000CF93DF93CDB7DEB72A970FB6F894DEBFAE
:1006B0000FBECDBFFC01D080118183819481892B35
:1006C00039F01F3F39F491E00FEFD01203C003C09F
:1006D00091E001C090E090FD4AC67F0185E0DE0117
:1006E000169601900D928A95E1F7F70122818E818D
:1006F0009F81222349F00E944B20082F682F8E8172
:100700009F810E94C42003C00E949820082FE12FDF
:10071000F0E018E0019FE00DF11D112443E0EE0F21
:10072000FF1F4A95E1F7ED0DF11DEE0FFF1FE45E8F
:10073000FE4F0591149180919B0160919A01409127
:100740009C01F70192810B32FDE51F07E1F148F4AE
:1007500009323DE5130779F00A32EDE51E07A1F0F5
:1007600045C00D32FDE51F07C9F0B0F10E323DE581
:10077000130701F13BC0992309F4DAC590E1980F02
:10078000981750F49FEF08C0992309F4D1C590EF52
:10079000980F891708F490E0892F09C0992309F46C
:1007A000C7C590E1940F941708F49FEF492F0E945A
:1007B000621BBEC5992309F4BBC590EF940F49177E
:1007C000A8F790E0F3CF992309F4B2C590E1960F12
:1007D000961750F49FEF08C0992309F4A9C590EF2C
:1007E000960F691708F490E0692FE1CF992309F477
:1007F000AAC00E3B8CE51807C1F188F40C3BFCE560
:100800001F07C9F00D3B2CE5120709F09CC0809131
:100810009D0187708E7F80939D0180E01DC0003C0C
:100820003CE5130709F472C008F457C0013CECE53D
:100830001E0759F188C080919D018770886180935F
:100840009D01887F91E009F490E080919D0190FBEB
:1008500080F980939D0183E00E94891A60919D0137
:1008600086E090E00E94702663C580919D01982FDC
:1008700096959695969559F1915E990F990F990FC6
:100880008770892B80939D0114C090919D01892FC1
:100890008695869586958F5F8F719770843008F066
:1008A0004FC0880F880F880F892B80939D018091FE
:1008B0009D01887F91E009F490E060919D0190FB9B
:1008C00060F960939D0186E090E00E94702680911F
:1008D0009D0186958695869525C020919D01822F44
:1008E000869586958695482F50E04330510554F4FF
:1008F0008F5F982F990F990F990F822F8770892BEF
:1009000080939D0160919D016160DBCF60919D01AD
:1009100060FF0BC06E7F60939D0186E090E00E94B7
:10092000702680E00E94891A03C5616060939D0172
:10093000613019F489E080939D0160919D01C3CFDE
:1009400090939D01B4CF043F2CE5120799F406E281
:1009500021EE40EE64EF7CE509C0083DFCE51F0791
:1009600011F506E221EE41EE68ED7CE5C7010E943B
:100970000F1ADEC4053F3CE5130708F040C1093DEE
:100980008CE5180731F407E225EE45EE69ED7CE5CC
:10099000EDCF0A3DECE51E0701F708E221E045EE48
:1009A0006AED7CE5E3CF992309F45EC110929E01C4
:1009B0000230FCE51F0708F441C106312CE512079F
:1009C00038F098012B5F3C452930310508F036C1DD
:1009D0000E94011F9093AD018093AC0100313CE572
:1009E000130709F4C3C008F041C008309CE519079B
:1009F00009F49AC0F0F40430FCE51F0709F487C03D
:100A000068F402303CE5130709F477C003301C4555
:100A100009F0E5C08091AC01826076C006309CE5AB
:100A2000190709F46EC008F07BC08091AC018860A2
:100A30006BC00C30FCE51F0709F485C068F40A3070
:100A40003CE5130709F474C008F079C00E94041152
:100A50008091AC01806858C00E309CE5190709F4FC
:100A600076C008F07FC08091AC018BC00C3FFCE5E4
:100A70001F0709F44FC018F503313CE5130709F4CB
:100A80007DC078F401319CE5190709F473C0023187
:100A90001C4509F0A4C00E9404118091AC018F771D
:100AA00033C00531FCE51F0709F472C008F486C0A5
:100AB0000B3F1C4509F093C08091AD013EC001156C
:100AC0008DE5180709F45FC058F40E3FECE51E07EA
:100AD00009F444C008F43FC08091AD0182602DC08C
:100AE00002302DE5120709F475C008F45DC003302B
:100AF0001D4509F074C060E06EC08091AC0181605A
:100B000003C08091AC0180618093AC0168C080918A
:100B1000AC0111C08091AD0182608093AD015FC0D6
:100B20008091AC018062F0CF8091AC018064ECCF09
:100B30008091AC0188608460E7CF8160EECF8091C6
:100B4000AC018E7FE1CF8091AC018D7FDDCF8091B4
:100B5000AC01877FD9CF8091AD0118C08091AD01E4
:100B60008D7FDBCF8091AC018F7ECECF8091AC01A9
:100B70008F7DCACF8091AC018F7BC6CF8091AC01B5
:100B8000877F8B7FC1CF8091AD018D7F8E7FC5CF59
:100B90008091AC0182FB222720F991E0922790FB03
:100BA00082F990FB83F9B0CF8091AD01982F909599
:100BB00091708E7F892B90FB81F9AFCF0E94041139
:100BC0008091AC0187FB222720F991E0922790FBCE
:100BD00087F99ACF61E08EE090E00E9470266091E4
:100BE000AC011091AD0184E090E00E947026612F6D
:100BF00081E290E00E9470260E94041199C3063F92
:100C00002CE5120731F406E221EE42EE66EF7CE5B8
:100C1000ADCE063F3CE5130730F407E225EE44EE87
:100C200065EF7CE5A3CE073F8CE5180709F0BBCE46
:100C300007E225EE46EE67EF7CE598CE80915E02F6
:100C40000631ECE51E0709F58A7A91E009F490E097
:100C500090939F01882311F065E301C069E283EF5F
:100C600091E00E94E71E0EC006311C4509F09EC0AF
:100C700080919F01882309F478C365E383EF91E0B5
:100C80000E94DA1E0E941E2053C38272F801E35CA8
:100C9000FC45E431F10508F07CC0EA5AFF4F0C94A2
:100CA0004B278091C00180FF1BC08E7F8093C001C5
:100CB0006091C0017091C1018091C2019091C30106
:100CC0000E944C131092C6019FEFE0E7F2E09150B2
:100CD000E040F040E1F700C000000E94741728C314
:100CE00081608093C00161E0869550C042EC53E181
:100CF0006BEC73E12CC04BEC53E162EC73E127C069
:100D000047E253E160E373E122C040E353E167E26D
:100D100073E11DC04FE053E16BE173E118C04BE19B
:100D200053E16FE073E113C047EF52E163E073E119
:100D30000EC043E053E167EF72E109C04EE553E1B5
:100D40006FE673E104C04FE653E16EE573E10E9484
:100D50005C1BEEC261E081E019C065E082E011C079
:100D600068E086E00EC06EE089E00BC064E18FE0D1
:100D700008C067E185E105C061E088E107C062E283
:100D800089E10E944A1BD4C261E083E20E94801381
:100D9000CFC201152CE5120731F00F3D1C4531F48F
:100DA0000E941D1FC5C20E94F416C2C2F701008135
:100DB0001181992349F0C8010E944B20D82E682F39
:100DC000C8010E94C42004C0C8010E949820D82EE7
:100DD000B8018D2D0E944A158C01982EF701A5802F
:100DE000A2943FE0A322D280D11010925D028091A4
:100DF0005B02877099F0DD2089F0812F807F80343D
:100E000021F080E2800F883048F082E00E941E21AD
:100E100080915B028770CC24C3948111C12CB12EC8
:100E2000B2942FE0B2228B2D90E08C30910508F027
:100E300040C2FC01E659FF4F0C944B27812F807F65
:100E40001F70882311F01295107FDD20B9F0112357
:100E500009F41AC280E2800F883010F0911006C0A9
:100E600080915E02182B10935E0205C080915D0296
:100E7000182B10935D020E941E2006C2802F0E9434
:100E80002411112309F415C2005E1095083010F0EA
:100E9000911006C080915E02182310935E0205C077
:100EA00080915D02182310935D020E941E2001C2F2
:100EB000812F807F1F70803211F01295107F992052
:100EC00021F0F1E09F16E1F02AC0DD2081F0809151
:100ED0005F02AA2051F001E0A01207C0182B1817DA
:100EE00009F4E7C110935F02E4C1812B10C0AA206E
:100EF00021F021E0A21609F4DCC10E94182027C0CD
:100F0000DD2041F035E03A1508F4D3C1812F0E946D
:100F10001A11CFC184E08A1508F4CBC118C0DD20B6
:100F200049F0AA2099F3F701858180FFADC18F7048
:100F30008583ECCFAA2059F0093309F0B7C1FFEF40
:100F400017EE23E0F15010402040E1F7ADC1812FB2
:100F50000E940F11AEC1812F86958695837019F07E
:100F6000813059F0A6C1DD2019F0C801937002C08C
:100F700080E090E00E94ED19A2C1DD2019F0C801C7
:100F8000937002C080E090E00E94D71998C1802F32
:100F9000DD2019F00E94DE1D02C00E94D71C0E94B5
:100FA000871E8DC1812F837009F069C0D11085C162
:100FB000902F929596959770990F990F802F8F701B
:100FC000882E912CA12CB12C092E04C0880C991CC0
:100FD000AA1CBB1C0A94D2F704FF12C04FE050E0D9
:100FE00060E070E004C0440F551F661F771F9A959C
:100FF000D2F7DB01CA0180959095A095B09503C00A
:1010000080E090E0DC0116951695412F4370423048
:1010100019F1C8F4009160021091610220916202FE
:1010200030916302413059F088299929AA29BB29B6
:10103000BC01CD0160237123822393230AC0802A3F
:10104000912AA22AB32ABC01CD01682979298A29CB
:101050009B290E94582131C188299929AA29BB2995
:10106000009160021091610220916202309163024E
:10107000BC01CD016027712782279327EACFDD20AD
:1010800019F0812F817001C08695882309F415C15C
:10109000902F929596959770990F990F802F8F703A
:1010A000882E912CA12CB12C092E04C0880C991CDF
:1010B000AA1CBB1C0A94D2F704FF12C04FE050E0F8
:1010C00060E070E004C0440F551F661F771F9A95BB
:1010D000D2F7DB01CA0180959095A095B09503C029
:1010E00080E090E0DC0116951695412F4370423068
:1010F000D9F068F50091A8011091A9012091AA01E9
:101100003091AB01413059F088299929AA29BB298E
:10111000BC01CD0160237123822393231EC0802A4A
:10112000912AA22AB32A13C088299929AA29BB295E
:101130000091A8011091A9012091AA013091AB0161
:10114000BC01CD01602771278227932706C0BC010F
:10115000CD01682979298A299B290E94EF20ADC0F9
:101160001F70DD2039F0812F0E943721802F0E94CF
:101170001A11A3C0802F0E940F11812F0E94F92005
:101180009CC0802F32EF931609F440C0391538F017
:1011900090EF991661F0E1EF9E1699F170C0F3EFB0
:1011A0009F16D9F124EF921609F44EC068C0DD20D5
:1011B00019F134E03A1508F47CC01F7181E090E029
:1011C000A0E0B0E0AC01BD0104C0440F551F661F94
:1011D000771F1A95D2F78091A8019091A901A0914B
:1011E000AA01B091AB018A019B01082719272A2780
:1011F0003B27C901B80125C025E02A1508F459C0CC
:10120000DCCFDD2029F0812F8F712CC0DD20D9F3B8
:10121000812F8F710E94F9204CC0DD2079F01F7161
:1012200081E090E0A0E0B0E0BC01CD0104C0660F19
:10123000771F881F991F1A95D2F703C060E070E0EE
:10124000CB010E94EF2035C0DD2079F01F71812F86
:101250000E94372138E0139FC001112483608093DE
:101260005B02812F0E94372124C081E00E941E2151
:1012700081E08A15F0F482E00E941E211AC0DD2070
:1012800039F0AA2009F4BFCF802F0E948B1111C022
:10129000AA2009F4BDCF893349F49FEFE7EEF3E0CC
:1012A0009150E040F040E1F700C00000802F0E9424
:1012B000241188EF8B0D843010F40E94031ACC2087
:1012C000A9F080915B0280FD11C0F7011282859523
:1012D000859585950E943721C7010E94460380911C
:1012E0005B028595859585950E94F92085E0F7013B
:1012F000DE01119601900D928A95E1F789819A811C
:101300000E949820EA81F0E008E0809FE00DF11D46
:10131000112483E0EE0FFF1F8A95E1F78981E80F22
:10132000F11DEE0FFF1FE45EFE4F859194911FC0EB
:1013300080915B028770D9F0F70182818823B9F030
:1013400082E02A960FB6F894DEBF0FBECDBFDF91C4
:10135000CF911F910F91FF90EF90DF90CF90BF90B2
:10136000AF909F908F900C941E2169E287CC2A96B3
:101370000FB6F894DEBF0FBECDBFDF91CF911F91A6
:101380000F91FF90EF90DF90CF90BF90AF909F9024
:101390008F90089580916C020895CF93DF9300D0D1
:1013A0001F92CDB7DEB790917702943019F58983FB
:1013B0007B836A8382E08093E9008FEF9091E8005D
:1013C000815095FD06C095ED9A95F1F700008111C9
:1013D000F5CF8091E80085FF0DC040E050E063E06C
:1013E00070E0CE0101960E946C218091E8008E771A
:1013F0008093E8000F900F900F90DF91CF910895A8
:10140000BC0184E00C94CD09BC0183E00C94CD09AF
:1014100022E02093E9002FEF3091E800215035FDC4
:1014200006C035ED3A95F1F700002111F5CF209176
:10143000E80025FF0BC040E050E066E070E00E944D
:101440006C218091E8008E778093E8000895CF9317
:10145000DF9321E02093E9002FEF3091E800215045
:1014600035FD06C035ED3A95F1F700002111F5CFB5
:101470002091E80025FF14C0EC0140E050E068E056
:1014800070E00E946C218091E8008E778093E800E4
:1014900088E0FE01ADE6B2E001900D928A95E1F799
:1014A000DF91CF9108952091E4003091E50095E619
:1014B0004091EC00842F817040FF23C08091E800B0
:1014C00080FD1DC080917702882399F0853099F0C6
:1014D0008091EB0085FD11C04091E4005091E50042
:1014E0002417350729F3915011F09A01E1CF84E0D8
:1014F000089582E0089583E0089581E0089580E0F2
:1015000008954091E80042FFDDCF0895809179026F
:1015100087FF11C08091E80082FD05C080917702AD
:101520008111F8CF11C08091E8008B770BC08091BA
:101530007702882349F08091E80080FFF8CF8091FE
:10154000E8008E778093E8000895982F973068F52B
:101550009093E900981739F07091EC002091ED001C
:101560005091F00003C0242F762F50E021FD02C0DF
:101570009F5FECCF3091EB003E7F3093EB003091DA
:10158000ED003D7F3093ED003091EB003160309302
:10159000EB007093EC002093ED005093F00020914D
:1015A000EE0027FDE5CF80E008958F708093E9007D
:1015B00081E0089520917F0230918002261737073D
:1015C00048F06115710539F42091E8002E772093D9
:1015D000E80001C0B901FC0120E06115710579F155
:1015E000809177028823F1F18530F1F18091E80054
:1015F00083FD3CC08091E80082FD2EC08091E80010
:1016000080FFEBCF2091F3008091F20090E0922BCD
:101610006115710551F08830910538F421912093BE
:10162000F100615071090196F3CF21E0089709F0AC
:1016300020E08091E8008E778093E800CECF2111E2
:10164000CFCF0AC080917702882361F0853061F0A6
:101650008091E80083FD0AC08091E80082FFF2CF0C
:1016600080E0089582E0089583E0089581E0089580
:10167000CF93DF93CDB7DEB760970FB6F894DEBF98
:101680000FBECDBF84B7877F84BF0FB6F894A895EF
:1016900080916000886180936000109260000FBEAE
:1016A00090E080E80FB6F894809361009093610019
:1016B0000FBE85B7806885BF85B7806885BF0E94EB
:1016C000A5240E94C4248091E20084608093E200FB
:1016D0007894809177028823A1F01091E9001F701F
:1016E0009091EC00892F817090FD80E8182B10926A
:1016F000E9008091E80083FD0E9498211F701093FB
:10170000E90082E084BD93E095BD9AEF97BD809398
:101710006E0003E211E0F80181918F010E949414A0
:10172000F1E00B321F07B9F70BE211E0B3E3EB2E48
:10173000B1E0FB2EF80181918F010E949414E01614
:10174000F106C1F7E0EAF1E0A2EBB1E011921D92DF
:1017500031E0E83AF307D1F70E94121F811102C06D
:101760000E941D1F879A8F9A82E08093800089E1F2
:10177000809381008FEF9FEF909387008093860086
:101780000E94271B80B3806780BB81B3806781BBC9
:101790008091910088608093910080919100816098
:1017A000809391008FB7F89493E09093990090ED17
:1017B000909398008FBF8091710082608093710038
:1017C0000E94121F811102C00E941D1F82E090E042
:1017D0000E945C268093D4010E94011F9093AD016A
:1017E0008093AC0183E090E00E945C26682F70E05B
:1017F00080E090E00E9458210E94271B8091AE015A
:10180000811133C00E94121F811104C00E941D1F4C
:101810000E94D51388E090E00E9464266093C00186
:101820007093C1018093C2019093C3016E7F71F4E4
:101830000E94D51388E090E00E9464266093C00166
:101840007093C1018093C2019093C3010E94391328
:101850001092C6018091C00180FF04C060E08695AF
:101860000E94801381E08093AE0186E091E0909326
:10187000B0018093AF01AFE9EA2EA2E0FA2E809189
:101880007702853009F03CC080917702843039F1CD
:101890001092B10120E488E190E00FB6F894A89589
:1018A000809360000FBE2093600080E00E94891A40
:1018B00083B7817F846083BF83B7816083BF78945F
:1018C000889583B78E7F83BF0FB6F894A8958091D3
:1018D0006000886180936000109260000FBE80916C
:1018E0007602882309F4CBCF0E94AB14E2EBF1E03F
:1018F00081918111F6C141E0EA3BF407C9F7BFCFFE
:101900000E94AB14E5EDF1E0A2EBB1E000E010E0E5
:10191000302F2D919191922721F180E0DD24D394F5
:10192000492F4D21D1F08F8338872D2181E009F493
:1019300080E089870E947B1E8160782F9B878A8741
:101940004F81588569858B850E943B19F801EB52C0
:10195000FE4F8081D826D08219C08F5FDD0C883081
:10196000F9F60F5F1F4F0830110591F68FEF8C8746
:101970008D871E860E947B1E8160782F988B8F87B3
:101980004C855D856E8588890E943B198091C601D2
:10199000882309F4ABC08091C501E091C001E695B0
:1019A000E81BE093BC01823059F4F0E0E355FD4FB1
:1019B000E4910E2F10E0F7E2CF2EF9E1DF2E6AC09E
:1019C000863059F4F0E0E655FD4FE4910E2F10E01B
:1019D000E7E1CE2EE9E1DE2E5DC0893061F4E695C7
:1019E000F0E0E955FD4FE4910E2F10E073E8C72EAB
:1019F00077E1D72E4FC08F3061F4E695F0E0EC55DB
:101A0000FD4FE4910E2F10E06FECC62E68E1D62E4C
:101A100041C0853159F4F0E0EF55FD4FE4910E2FB0
:101A200010E051EAC52E58E1D52E34C08831F1F0CE
:101A3000833241F4F701059114914FE6C42E4BE136
:101A4000D42E28C08432C9F08532F1F48E2F63E0A1
:101A50000E941727E92FF0E0E456FD4FE4910E2F86
:101A600010E03CE9C32E37E1D32E14C008E210E0A9
:101A70002CE2C22E28E1D22E0DC004EF11E09FE02F
:101A8000C92E98E1D92E06C000ED17E082E8C82ED5
:101A900087E1D82E8091BD01882389F01092BD0185
:101AA0000E947B1E980120953095820F931F909382
:101AB000BB018093BA011092BF011092BE018091C8
:101AC000BA019091BB010E946C1E8017910770F0C3
:101AD000E091BA01F091BB010E0F1F1F1093BB01E3
:101AE0000093BA018AEB91E0F601099586E0EDECEE
:101AF000F1E0DE01119601900D928A95E1F7C09018
:101B0000CF01D090D0010091D1011091D20110925B
:101B1000CF011092D0011092D1011092D201C110C8
:101B200003C0DD2009F45DC08091CB019091CC0110
:101B30000E946C1EAC019091CA01992339F020914A
:101B4000050130E02417350758F04BC020910401FF
:101B5000FAE02F9F900111242417350718F041C097
:101B60009F3F19F09F5F9093CA01CC2061F00E94C3
:101B7000951D1C1414F09FEF01C091E0899F802DEA
:101B800011248093CF01DD2061F00E94951D1D146A
:101B900014F09FEF01C091E0899F802D1124809364
:101BA000D0013091CF013323E1F02091D0012223E5
:101BB000C1F045EB3403C0011124992319F090932F
:101BC000CF0103C081E08093CF0135EB2303C00137
:101BD0001124992319F09093D00103C081E08093E0
:101BE000D001011103C0112309F451C08091C80133
:101BF0009091C9010E946C1E9C019091C70199238C
:101C000009F485C02536310508F441C09F3F19F01D
:101C10009F5F9093C701002361F00E945C1D101626
:101C200014F09FEF01C091E0899F802D11248093D3
:101C3000D101112361F00E945C1D111614F09FEF79
:101C400001C091E0899F802D11248093D2013091B1
:101C5000D1013323E1F02091D2012223C1F045EBE1
:101C60003403C0011124992319F09093D10103C0CA
:101C700081E08093D10135EB2303C0011124992326
:101C800019F09093D20103C081E08093D20180913A
:101C9000CF0181110BC08091D001811107C08091CB
:101CA000D101811103C08091D20181110E94871E50
:101CB000CB82DC820D831E8386E0FE013196ADEC83
:101CC000B1E001900D928A95E1F70E94031A90917C
:101CD000D301891709F4D3CD0E94031A8093D3014D
:101CE000CECD80E189BD82E189BD09B400FEFDCF82
:101CF0008091D8008F7D8093D8008091E000826031
:101D00008093E0008091E00081FDFCCFB8CD2D32C2
:101D1000314008F07DCFBBCF0F931F9341E050E0DF
:101D200060E070E08A019B0104C0000F111F221FB8
:101D3000331F8A95D2F7C901B8010E9458211F911B
:101D40000F910C9404110F931F93CF93DF93809105
:101D5000000282958F7009F05DC08091FD0188239B
:101D600009F458C080913202109101026091FB0188
:101D70007091FC01C091FE01D091FF0191E06F3F95
:101D800009F090E0292F06E0811709F443C020975D
:101D900021F07F3F21F030E003C031E001C0322F5D
:101DA00090E030FD34C0089FF001099FF00D112430
:101DB000DF01AE5FBD4F11963C911197371327C0DD
:101DC0003C91361324C012963C91129731111FC0DA
:101DD00013964D915C9114974C1B5D0B483C51053B
:101DE000B0F4809100028F70806180930002E95FFF
:101DF000FD4F80818F70806180838BEF91E00E9426
:101E00004603DF91CF911F910F910C9462210196AF
:101E10008770BACFDF91CF911F910F9108950E94E3
:101E20008D20292F2F70E92FE295EF704E2F50E073
:101E3000FA013297EE30F105B8F4EA58FF4F0C94EE
:101E40004B27803F99F018F4883E70F40FC0843F10
:101E500059F40CC0883E50F0813F31F407C0822F06
:101E6000869586958695089580E0089581E0089589
:101E70009F92AF92BF92CF92DF92EF92FF920F9319
:101E80001F93CF93DF93CDB7DEB761970FB6F8946A
:101E9000DEBF0FBECDBF8C0185E0F801DE011D96CF
:101EA00001900D928A95E1F7F80190818181E2809D
:101EB0003091FB016091FC014091FE015091FF01C6
:101EC0004115510531F06F3F31F421E03F3F19F4E6
:101ED00003C021E001C020E0F22FF1709F2E20FD11
:101EE00023C1F801C380D4802BEFA22E21E0B22EB3
:101EF000F090FD01F601E41BF50BFF2009F4CEC0C4
:101F000020910002E83CF10508F099C0422F407F83
:101F100009F051C0681311C039130FC0FE2CE11035
:101F20000CC02F70206120930002C5010E9446035F
:101F300080910002F801858337C1CD2831F08F3FB1
:101F400031F421E09F3F19F403C021E001C020E0FB
:101F500020FD03C021E02E2502C020E030E0F22F5A
:101F6000F170FF2E20FF1DC020913202409101022E
:101F700056E0241709F4F6C030E0529FF001539F59
:101F8000F00D1124EE5FFD4F6181861306C0608164
:101F9000961303C06281E61204C02F5F3F4F277083
:101FA000E8CFFE2CEE2009F4FFC080910002816092
:101FB0008093000250C0681307C0391305C0E110B8
:101FC00003C0F80125838DC09D878E878D859E85F2
:101FD0000E940F0F882369F1EE2059F12091000231
:101FE000822F82958F7090E0029774F08091FB01B0
:101FF0009091FC0198878F831986DB86CA862C878F
:10200000CE0107960E94460386E0F801ABEFB1E0EF
:1020100001900D928A95E1F70E94A30E0DC06817FA
:10202000E1F09D878E878D859E850E940F0F81111F
:102030001EC0C8010E944603FF24F394B5C0422F7E
:10204000407F69F78BEF91E00E94460386E0F5013F
:1020500011928A95E9F7F12CA7C03913E2CFE1106C
:10206000E0CFF8012583C8010E94460357C0EE2047
:1020700001F320910002822F82958F7090E00297E9
:102080001CF28091FB019091FC019A8389831B8251
:10209000DD82CC822E83CE010196B4CFE83CF105DF
:1020A000E8F5FE2CEE2029F2681327C0391325C06D
:1020B0002091000220FD18C0822F82958F70482F3A
:1020C00050E04115510581F0F80125834F3051054D
:1020D00041F08F5F982F9295907F822F8F70892B80
:1020E0008583C8010E94460386E0F801ABEFB1E0AA
:1020F00001900D928A95E1F757C09D878E878D8557
:102100009E850E940F0F81117FCF80910002816018
:1021100080930002C8010E94460346C086E0F50194
:1021200011928A95E9F740C0EE2009F482CF9D878D
:102130008E878D859E850E940F0FF82E882309F4C7
:1021400078CF86E0F801ABEFB1E001900D928A956F
:10215000E1F78091FB019091FC010E948D200E948B
:10216000A30E22C09D878E878D859E850E948D201F
:10217000292F22952F70223028F49F7039F0811179
:1021800005C00BC0243028F49F7049F4805E88306D
:1021900020F0C8010E9446039F2CF92C05C0F801CD
:1021A0009581907F99F7F9CF8F2D61960FB6F894AE
:1021B000DEBF0FBECDBFDF91CF911F910F91FF907A
:1021C000EF90DF90CF90BF90AF909F9008951092C6
:1021D0005D0210925C020E941E20EDECF1E086E0B0
:1021E000DF011D928A95E9F71092CA011092C7018A
:1021F000109268020E94871E80E090E00E94ED1914
:1022000080E090E00C94D71910925E0286E0E5EF32
:10221000F1E0DF011D928A95E9F70C94E71088231D
:1022200041F0809590915E02892380935E020C9428
:102230001E200895882339F090915E02892B8093A7
:102240005E020C941E200895882309F463C082382E
:1022500069F40E94031A81FF5DC069E383EF91E096
:102260000E94E71E0E941E2069E30EC0833891F48D
:102270000E94031A80FF4EC063E583EF91E00E9445
:10228000E71E0E941E2063E583EF91E00E94DA1EA4
:102290000C941E20843869F40E94031A82FF3AC00D
:1022A00067E483EF91E00E94E71E0E941E2067E42E
:1022B000EBCF9CEF980F913A10F4682FE5CF90E2A6
:1022C000980F983088F4877021E030E0A90102C0AF
:1022D000440F551F8A95E2F7CA01809590915E02DE
:1022E000892380935E02D4CF9BE5980F933020F42E
:1022F00080E090E00C94ED1998E5980F973120F468
:1023000080E090E00C94D719803F20F00E94D71C09
:102310000C94871E0895CF93882309F423C1C82FF6
:102320008238B1F40E94031A81FD1CC169E383EF76
:1023300091E00E94E71E0E941E202FEF81EE94E0A4
:10234000215080409040E1F700C0000069E317C0D1
:102350008338E1F40E94031A80FD04C163E583EF32
:1023600091E00E94E71E0E941E202FEF81EE94E074
:10237000215080409040E1F700C0000063E583EF0A
:1023800091E00E94DA1ECF910C941E208438B1F4A3
:102390000E94031A82FDE6C067E483EF91E00E9489
:1023A000E71E0E941E202FEF81EE94E02150804016
:1023B0009040E1F700C0000067E4E1CF8CEF8C0FA4
:1023C000813A08F082C080916902813069F018F08A
:1023D000823021F172C080915E02823209F0AAC07F
:1023E0008C2F0E94871F6EC080915E028232C1F3E3
:1023F000C43189F050F4CB3009F49AC0C03109F0EF
:102400005FC082E08093690293C0C93221F0C83373
:1024100009F48EC055C01092690252C0C932A9F1A8
:1024200028F5C43191F1B0F4C73009F09BC08EE1BA
:102430008093040182E3809305018AE08093210167
:1024400084E18093200188E080931F0188E28093DB
:102450001E0188C0CE51C63008F084C0EC2FF0E0D9
:10246000ED5CFE4F80818093DD017CC0CE34F9F0BD
:1024700028F4CB3409F076C06AE014C0C13581F08D
:10248000C23509F06FC061E00DC08091DD01882385
:1024900019F01092DD0166C081E08093690262C08C
:1024A00061E006C08091DD01CF910C94611C6AE06F
:1024B0008091DD01CF910C94111C109269023AC0F9
:1024C00080E0817081114EC035C080E28C0F883071
:1024D00068F4C77081E090E001C0880FCA95EAF700
:1024E00090915E02892B80935E024DCFEBE5EC0F5D
:1024F000E33040F4F0E0E35CFE4F808190E0CF9168
:102500000C94ED19E8E5EC0FE73150F4F0E0EE0F34
:10251000FF1FE05CFE4F80819181CF910C94D71911
:10252000C03F00F18C2F0E94DE1DCF910C94871EBE
:1025300081E0C7CFE5EFF1E08BEF91E02191C21789
:1025400049F08E179F07D1F76C2F83EF91E00E941F
:10255000E71E19CF6C2F83EF91E00E94DA1E0E94D4
:102560001E20F2CFCF9108959091AC0192FF0DC043
:10257000282F2871283019F4877F846006C0282FFF
:102580002471243011F48B7F886093FF0DC0282FB5
:102590002871283119F4877E846106C0282F2471A0
:1025A000243111F48B7E88612091AD0120FF0DC094
:1025B000382F3871383019F4877F816006C0382F82
:1025C0003171313011F48E7F886021FF0DC0282FCA
:1025D0002871283119F4877E816106C0282F217166
:1025E000213111F48E7E886194FD877E0895E0ECA0
:1025F000F1E0438121E1421B08F440E021E06281E7
:1026000081810C94AF1BE0ECF1E0438121E1420FAA
:1026100008F44FEF21E0628181810C94AF1BE0EC64
:10262000F1E0628121E1621B08F460E021E0438176
:1026300081810C94AF1BE0ECF1E0628121E1620F3B
:1026400008F46FEF21E0438181810C94AF1BE0EC33
:10265000F1E0818121E04381628188500C94AF1BBD
:10266000E0ECF1E0818121E043816281885F0C949C
:10267000AF1B8091C001282F269530E02115310530
:1026800019F48170826005C02B32310524F081700D
:1026900084658093C0010895CF92DF92EF92FF92FC
:1026A0006B017C010E943913B701A60188E090E01C
:1026B000FF90EF90DF90CF900C9482268091C40120
:1026C000882319F081508093C4016091C0017091FA
:1026D000C1018091C2019091C3010C944C1380916F
:1026E000C401833018F48F5F8093C4016091C001EE
:1026F0007091C1018091C2019091C3010C944C135F
:102700009091C00190FF3DC09170811102C0926014
:1027100006C08B3210F0946502C0880F982B9093FE
:10272000C001662351F06091C0017091C101809198
:10273000C2019091C3010E944C136091C001669543
:1027400070E04BE050E080E191E00E946027892B2F
:1027500019F01092C60109C081E08093C6010E9461
:102760007B1E9093BB018093BA0181E08093BD01F1
:1027700020E04091C3016091C2018091C1010C949D
:10278000AF1B08958091C0018695815009F48AE2BB
:1027900061E00C9480138091C00186958F5F8B322D
:1027A00008F081E061E00C948013E0ECF1E083E05C
:1027B000808311828FEF8283838314826081718191
:1027C000828193810C944C13AF92BF92CF92DF928F
:1027D000EF92FF920F931F93CF93DF93E82EF62E85
:1027E000E901E42FF0E0611106C0EF54FD4FE491E0
:1027F0004E2F2E2F71C0062F10E0EF54FD4F449145
:10280000F42FC42ED12C26E0829FC00111242FEF7B
:1028100030E0B9010E9423275BEA5603C001579FAD
:10282000900D11248E0D911D8E0D911D582F550F59
:10283000580FD901A01BB10BAC9DC001AD9D900DEF
:10284000BC9D900D1124E92FF59ED0011124AB2FD2
:10285000BB277901EA1AFB0AEC9CD001ED9CB00D74
:10286000FC9CB00D11245901A51AB108A09E70015D
:10287000A19EF00CB09EF00C1124EF2CFF242E1919
:102880003F092C9D80012D9D100D3C9D100D1124A4
:10289000212F6230710591F048F461157105E1F066
:1028A00061307105B9F4242F4B2F16C064307105C7
:1028B00069F040F06630710579F00CC0242F492F83
:1028C000E12F0AC0492FEF2F2B2F06C0292FE42F0D
:1028D000412F02C0292FEB2F49832883EA83DF9100
:1028E000CF911F910F91FF90EF90DF90CF90BF900D
:1028F000AF900895CF93DF9300D01F92CDB7DEB78E
:102900009091C00190FF0AC09E012F5F3F4F0E942F
:10291000E4134B8169818A810E94621B0F900F90A2
:102920000F90DF91CF910895F894E82FE295EF7022
:10293000F0E031A1282F2F7081E090E001C0880FD6
:102940002A95EAF7982F9095932391A392A1892B2A
:1029500082A3789408958F929F92AF92BF92CF9264
:10296000DF92EF92FF920F931F93CF93DF93C3E217
:10297000D1E000EA11E08BE2C82E81E0D82E5801A8
:10298000912CEE24E394F12CBE018881F894E82F79
:10299000E295EF70F0E021A18F70A70102C0440F13
:1029A000551F8A95E2F7CA01922F982B91A392A105
:1029B0008095892382A3789450EA5A95F1F7EBE247
:1029C000F1E020E030E0812C4191842F82958F70DE
:1029D00090E0DC0190968C9190E04F7002C095954C
:1029E00087954A95E2F780FD07C08E2D022E01C023
:1029F000880F0A94EAF701C080E0882A2F5F3F4FD2
:102A00002830310509F72196FB0180810E9494143A
:102A1000D5018C91881619F08C9281E001C080E07C
:102A2000982ABFEFAB1ABB0ACC16DD0609F0ACCF73
:102A3000992049F081E08093E4010E947B1E9093ED
:102A4000E3018093E2018091E4018823A9F0809161
:102A5000E2019091E3010E946C1E069768F0E2EBA0
:102A6000F1E088EA91E0D8012D918D0121938A1738
:102A70009B07C9F71092E401892DDF91CF911F9137
:102A80000F91FF90EF90DF90CF90BF90AF909F900D
:102A90008F900895CF93DF93E72FF0E028E0829F97
:102AA000E00DF11D1124B3E0EE0FFF1FBA95E1F721
:102AB000E60FF11DEE0FFF1FE45EFE4FC591D491AE
:102AC000CE01C238D10569F1B0F4C133D10509F4A2
:102AD00075C048F4C932D10509F469C0CA32D105BC
:102AE00009F473C085C0C533D10509F459C0C93391
:102AF000D105B9F07DC0C33ED10571F138F4C03EB7
:102B0000D105B1F0C23ED10511F172C0C63ED1056A
:102B1000B9F1C73ED105C9F1C43ED10509F068C07D
:102B200024C02091AC0120FD5DC021FD5BC060C0D0
:102B30002091AC0120FD50C02091AD0120FF51C17A
:102B40008091AC0184FD4BC183EE90E04AC120919D
:102B5000AC0122FF46C1F4CF8091AC0182FD3FC0A1
:102B60008091AD0180FD3EC0EBCF2091AD0121FFF2
:102B700038C18091AC0184FD32C187EE90E031C153
:102B80002091AC0123FF2DC1F4CF8091AC0183FDD6
:102B90002CC08091AD0181FFECCF84EE90E021C18B
:102BA0002091AC0125FF1DC189E290E01AC120915E
:102BB000AC0125FF16C185E390E013C12091AC0163
:102BC00026FF0FC18AE290E00CC12091AC0126FFE4
:102BD00008C181E390E005C189E390E002C182EE83
:102BE00090E0FFC080EE90E0FCC086EE90E0F9C07F
:102BF000C11551E5D50708F06CC0C11520E5D20715
:102C0000F0F0CE01F4E096958795FA95E1F7282F3C
:102C100023703C2F337081E090E002C0880F991F31
:102C20003A95E2F79C68922B2C2F2F7026952695CB
:102C300040E2249F90011124822B932BD2C0C83EE6
:102C4000D10570F5C03ED10508F0CBC0C83AD1051A
:102C5000B8F4C53AD10550F02C2F255AC22FD0E038
:102C6000C35CDE4F888190E09064BBC0C130D10569
:102C700009F4B7C008F4B3C0249708F4B0C0B1C0D9
:102C8000CF3BD10508F0ABC02C2F285AC22FD0E083
:102C9000CC0FDD1FC05CDE4F888199819464A1C098
:102CA000C11540E2D40760F4C11551E0D50708F022
:102CB00098C0C03FD10508F492C0CE01906591C084
:102CC000C11580E4D80708F48AC0CE019F70906ACD
:102CD00088C0C11595E5D90708F040C0C11524E5A5
:102CE000D20728F09C2F8827846F906A7AC0C1157C
:102CF00043E5D407A8F09E012370332781E090E0DC
:102D000002C0880F991F2A95E2F72C2F2695269549
:102D100040E2249F90011124822B932B9A6861C07A
:102D2000C11552E5D50728F49C2F8827816F906A3A
:102D300058C09E012370332781E090E002C0880FC5
:102D4000991F2A95E2F72C2F2695269550E2259F6C
:102D500090011124822B932B9C6843C0C11589E5F7
:102D6000D807B0F4C11598E5D90728F09C2F88271B
:102D7000806F906A36C0C11526E5D20780F58C2F8A
:102D80000E94B4128F7190E0982F8827906229C01A
:102D9000C1154AE5D40790F48C2F8F700E94B412AD
:102DA0009E0194E0369527959A95E1F72F7030E0D3
:102DB000322F22273069A901482B0FC0CE0190562F
:102DC0008115904260F48D2F8F710E94B4129E0184
:102DD000332730628F71A901582BCA0102C080E0ED
:102DE00090E0DF91CF9108950E9404112FEF84E3CA
:102DF0009CE0215080409040E1F700C0000081E05D
:102E00008093E00080E28093D8001092C9008FE1A7
:102E10009EE40197F1F700C0000087E090EBDC0131
:102E20008093810290938202A0938302B0938402E4
:102E30009CE088E10FB6F894A895809360000FBEDF
:102E400090936000FFCF1F920F920FB60F92112444
:102E50008F939F938091E1018F5F8093E1018111B6
:102E60001BC08091DE01882329F08E9880919B0100
:102E70008093DE018091DF01882329F08D98809175
:102E80009A018093DF018091E001882329F08C98DA
:102E900080919C018093E0019091DE018091E1019D
:102EA000981305C08E9A80919B018093DE019091CA
:102EB000DF018091E101981305C08D9A80919A01FC
:102EC0008093DF019091E0018091E101981305C0AA
:102ED0008C9A80919C018093E0019F918F910F903B
:102EE0000FBE0F901F9018958091C00180FD09C002
:102EF00010929B0110929A0110929C018E9A8D9AC9
:102F00008C9A08950895CF93DF93EC012AE931E07C
:102F10004091C3016091C2018C810E94E4130E9420
:102F200074179A818C8190FF02C08F5F01C081501D
:102F30008C83DF91CF910895CF93FC01C28184816E
:102F400091E09483811105C01092EB011092EA0187
:102F500059C02091EB01222351F121502093EB0124
:102F60003091EC01332319F08BE4821B01C0822FD6
:102F70009091C301989FC00111246BE470E00E94FE
:102F800023276093EA01211107C0332329F010920F
:102F9000EC018BE48093EB01C330A0F58091C1017B
:102FA0008093E8018091C2018093E9012BC00E94C7
:102FB0004C268230914034F5C33038F00E944C26C4
:102FC0006FEF70E00E94372702C08091C1018093AB
:102FD000E801C33058F00E944C262091C20126958A
:102FE000622F70E00E943727820F02C08091C201D9
:102FF0008093E9011092EA018BE48093EB0181E078
:103000008093EC012AE931E04091EA016091E90105
:103010008091E8010E94E413CF910C947417CF9330
:10302000DF93EC018C812AE931E0882311F040E044
:1030300002C04091C3016091C2018091C1010E9410
:10304000E4130E9474178C8190E001968170992797
:103050008C83DF91CF9108958F929F92AF92BF9210
:10306000CF92DF92EF92FF920F931F93CF93DF9354
:10307000EC014C81042F10E09801D8010E94F82641
:103080009B01AC010E94C3266B017C01E0E2F0E0F1
:10309000E01BF10BA5E5B0E09B01AC010E94C3264B
:1030A0004B015C019F01DF010E9451279B01AC0194
:1030B0000E94CE269B01AC012C0D3D1D4E1D5F1DB7
:1030C000C501B4010E94D626922F2A3228F483E04B
:1030D000289FA00111240DC045E550E0491B51096E
:1030E0009A01220F331F420F531F57FF02C04F5F39
:1030F0005F4F5595479540952AE931E06091C201AF
:1031000085E5891B0E94E4130E9474178C8181114C
:1031100002C091E003C0803219F49FEF90931D012B
:1031200090911D01890F8C83DF91CF911F910F9199
:10313000FF90EF90DF90CF90BF90AF909F908F90D7
:103140000895CF9310929B0110929A0110929C01C6
:10315000C091E6011C1674F080911C0187FD0AC025
:103160002AE931E04091C3016091C2018091C1011F
:103170000E94E4130E94741780911B01C80FC09332
:10318000E60190911C01980F90931C01191614F4FC
:10319000C7FD03C0819580931B01CF910895FF92D5
:1031A0000F931F93CF93DF93FC01828180FF02C0B6
:1031B000DFEF01C0D1E010929B0110929A011092B2
:1031C0009C0104E010E0F12CC091E5018C2F8F0DE3
:1031D000823024F487FD8F5F811113C08091C30179
:1031E000809FA001819F500D1124559547955595BD
:1031F00047952AE931E06091C2018091C1010E94A6
:10320000E413FD0E01501109F9F60E947417D13034
:1032100011F4C11103C01092E50103C0C150C09365
:10322000E501DF91CF911F910F91FF900895CF930A
:10323000DF93EC01E0ECF1E0438162818C810E943C
:103240007A148C818F5F8C83DF91CF910895CF9317
:10325000DF93EC01EC81F0E0EA54FC4F4491E0ECA8
:10326000F1E0628181810E947A148C818F5F8C836E
:10327000DF91CF9108951F93CF93DF93CDB7DEB742
:1032800067970FB6F894DEBF0FBECDBF4B8B5C8B3C
:103290006D8B7E8B8F8B86E09E01235F3F4FD90124
:1032A000E82F1D92EA95E9F795E0FE017396D901A2
:1032B00001900D929A95E1F7F901DE0117960190C0
:1032C0000D928A95E1F7CE0107960E94380F811181
:1032D0003EC086E0FE013796DE01119601900D9208
:1032E0008A95E1F7FF81E8856A857B85611571051F
:1032F00031F0EF3F31F481E0FF3F19F403C081E08A
:1033000001C080E080FD23C02091010230E0C901AE
:103310000196877099274091320250E084179507F3
:1033200079F1F983EA837D836C8396E0929FD001E3
:10333000939FB00D1124AE5FBD4FFE0131960190F9
:103340000D929A95E1F7809301020E94622116E0A6
:1033500080913202909101028917F9F0189FC00103
:1033600011248E5F9D4F0E94380F8823B1F0809109
:10337000320290E001968770992780933202E8CF5D
:103380000E9404111092010210923202EBEFF1E060
:1033900086E0DF011D928A95E9F767960FB6F894EB
:1033A000DEBF0FBECDBFDF91CF911F910895209159
:1033B000F1013091F2012817390771F09093F20171
:1033C0008093F101E091AF01F091B001309721F0CD
:1033D0000084F185E02D099408952091EF0130914A
:1033E000F0012817390771F09093F0018093EF01F5
:1033F000E091AF01F091B001309721F00680F781A4
:10340000E02D09940895E091AF01F091B00130975B
:1034100021F00190F081E02D099480E008950F9350
:103420001F93CF93DF93C42FD22FFC018281882377
:10343000C9F040939E010E947B1E9093EE01809301
:10344000ED0180E28C0F883008F05EC0C77081E02B
:1034500001C0880FCA95EAF7DF91CF911F910F91B4
:103460000C941A1180919E0148133EC08091ED0189
:103470009091EE010E946C1E883C9105A8F510E227
:103480001D0FCD17B9F080E28C0F883040F4C77063
:1034900081E001C0880FCA95EAF70E940F11183029
:1034A00048F481E09D2F977001C0880F9A95EAF744
:1034B0000E941A11802F0E948B11093349F4FFEFEB
:1034C00027EE83E0F15020408040E1F700C000008B
:1034D000802F0E9424111830B8F4D77081E001C009
:1034E000880FDA95EAF70AC080E28C0F883060F422
:1034F000C77081E001C0880FCA95EAF7DF91CF91CC
:103500001F910F910C940F11DF91CF911F910F918B
:103510000895CF92DF92EF92FF928430A0F4811150
:1035200013C02091880030918900232B51F0909195
:103530006F009D7F90936F0090916F009E7F90939E
:103540006F008F9A11C083E020918800309189002C
:10355000232B51F490916F00926090936F009091A3
:103560006F00916090936F00282F30E0AFEFBFEFB6
:103570000E94F82623E030E040E050E00E94D6268A
:10358000B42FA32F922F8827492F5A2F6B2F7727DD
:10359000CA014C3724E1520728F469E070E00E9428
:1035A000232729C0DB01CA018A50974DAF4FBF4F77
:1035B0006627782F892F9A2F25EF38E241E050E0D7
:1035C0000E94D62669017A01CA01B9010E94072723
:1035D0009B01AC01C701B6010E940727BB27A92F99
:1035E000982F872F009721E0A207B10511F0BC01A9
:1035F00002C06FEF7FEF7093890060938800FF90A7
:10360000EF90DF90CF9008951F920F920FB60F9218
:1036100011242F938F939F9380918800909189001C
:103620008130914008F08F989F918F912F910F904A
:103630000FBE0F901F9018951F920F920FB60F920A
:1036400011248F9A0F900FBE0F901F9018950E9413
:10365000121F811102C00E941D1F86E090E00E948F
:103660005C2680939D01282F26952695269530E08F
:103670002430310524F08770886180939D0180910A
:103680009D0180FF04C086958695869501C080E0E7
:103690000C94891A9091C00190FF04C096959817D8
:1036A00040F003C0811105C090E0961710F40C940F
:1036B000CB1361E00C948013882311F0FA0101C050
:1036C000FB0109949091C00190FF08C080939B0179
:1036D00060939A0140939C010C94741708950F9382
:1036E0001F93CF93DF9300D01F92CDB7DEB78C012D
:1036F0008091E70181110AC09E012F5F3F4F4FEF7C
:103700006FEF0E94E4138A818093E701F8018481BE
:10371000813051F028F0823061F44091E7010AC015
:103720008091E70140E007C06091E70140E080E060
:1037300003C040E080E060E00E94621BF8018481E9
:1037400090E0019663E070E00E94372784830F9039
:103750000F900F90DF91CF911F910F910895EF92ED
:10376000FF920F931F93CF93DF9300D01F92CDB79B
:10377000DEB7082FF62E142FE22E9091C00190FF95
:1037800046C0E92FE695AE2FB0E0A259BE4F8C910E
:103790008093C5019E7F923061F49E012F5F3F4F61
:1037A000802F0E94E4134B8169818A810E94621BF1
:1037B0001CC0823019F41091C30117C0863019F46F
:1037C0000091C10112C08930D9F3893171F4E951F6
:1037D000E695F0E0EF54FC4F859194912AE931E0B1
:1037E000802F0E94E4130E9474170093C101F0928D
:1037F000C2011093C301EE2051F06091C00170919D
:10380000C1018091C2019091C3010E944C130F909D
:103810000F900F90DF91CF911F910F91FF90EF903C
:103820000895833011F128F4813049F0823091F00D
:103830000895853081F120F18630C1F1089580919D
:103840000401681720F4861B8093040108951092E8
:103850000401089580910501681720F4861B809368
:1038600005010895109205010895809121016817BE
:1038700020F4861B80932101089510922101089560
:1038800080912001681720F4861B80932001089501
:1038900010922001089580911F01681720F4861B63
:1038A00080931F01089510921F01089580911E01B9
:1038B000681720F4861B80931E01089510921E0144
:1038C0000895833081F128F4813059F08230D1F0AD
:1038D0000895853009F449C0B8F1863009F456C01E
:1038E000089580910401262F30E0280F311D2F3FCD
:1038F000310524F4680F6093040108958FEF8093DD
:103900000401089580910501262F30E0280F311D14
:103910002F3F310524F4680F6093050108958FEF60
:1039200080930501089580912101262F30E0280F12
:10393000311D2F3F310524F4680F60932101089554
:103940008FEF80932101089580912001262F30E090
:10395000280F311D2F3F310524F4680F609320019B
:1039600008958FEF80932001089580911F01262FE5
:1039700030E0280F311D2F3F310524F4680F60938C
:103980001F0108958FEF80931F01089580911E01FC
:10399000262F30E0280F311D2F3F310524F4680F0A
:1039A00060931E0108958FEF80931E010895803F5C
:1039B00039F48091D00187FF6AC01092D00167C0AE
:1039C000813F29F48091D0011816BCF360C090911A
:1039D000CF01823F29F497FF5AC01092CF0157C000
:1039E000833F19F41916CCF352C09091D101893F4D
:1039F00031F419160CF04BC01092D10148C08A3F27
:103A000019F497FF44C0F8CF8B3F39F48091D2016D
:103A100087FF3DC01092D2013AC08C3F29F48091BB
:103A2000D2011816BCF333C0843F21F48091CE013B
:103A30008E7F17C0853F21F48091CE018D7F11C00C
:103A4000863F21F48091CE018B7F0BC0873F21F40C
:103A50008091CE01877F05C0883F31F48091CE01EF
:103A60008F7E8093CE0113C08D3F21F48091680238
:103A70008E7F0BC08E3F21F4809168028D7F05C040
:103A80008F3F29F4809168028B7F80936802809138
:103A9000CF01811106C08091D001811102C0109226
:103AA000CA018091D101811106C08091D20181119A
:103AB00002C01092C70108958091680280FF08C07B
:103AC00060911F0170E0759567957595679521C0A8
:103AD00081FF06C060911F0170E07595679519C060
:103AE00082FF04C060911F0170E010C09091C70177
:103AF000992399F060911E019617A0F780911F01FC
:103B0000899FC001112470E00E9437276038710539
:103B100040F46115710519F406C061E070E0862F6C
:103B200008958FE7089581E008958091680280FFED
:103B30000BC06091210185E0689FB001112475954B
:103B40006795759567952BC081FF09C0609121012C
:103B500085E0689FB00111247595679520C082FFAC
:103B600007C06091210185E0689FB001112417C052
:103B70009091CA019923D1F060912001961788F79E
:103B80002091210185E0289F90011124929FA0019E
:103B9000939F500D112470E0CA010E9437276038AE
:103BA000710540F46115710519F406C065E070E017
:103BB000862F08958FE7089581E00895803F21F4CE
:103BC0000E94951D819504C0813F29F40E94951D96
:103BD0008093D0010895823F21F40E94951D819524
:103BE00004C0833F29F40E94951D8093CF0108955E
:103BF000893F19F40E945C1D05C08A3F31F40E9480
:103C00005C1D81958093D10108958B3F21F40E9422
:103C10005C1D819504C08C3F29F40E945C1D80933B
:103C2000D2010895843F21F48091CE01816017C0B4
:103C3000853F21F48091CE01826011C0863F21F43E
:103C40008091CE0184600BC0873F21F48091CE012A
:103C5000886005C0883F31F48091CE0180618093F7
:103C6000CE0108958D3F21F48091680281600BC0E0
:103C70008E3F21F480916802826005C08F3F29F455
:103C800080916802846080936802089578941F92FE
:103C90000F920FB60F9211248F939F93AF93BF9300
:103CA0008091640290916502A0916602B0916702D2
:103CB0000196A11DB11D8093640290936502A093AB
:103CC0006602B0936702BF91AF919F918F910F9061
:103CD0000FBE0F901F9018959C014FB7F8948091DC
:103CE000640290916502A0916602B09167024FBF95
:103CF000821B930B08952FB7F894809164029091E2
:103D00006502A0916602B09167022FBF08950E94DC
:103D10007B1E2091CF01211104C02091D0012223CC
:103D200021F09093CC018093CB012091D1012111FE
:103D300004C02091D201222321F09093C9018093E5
:103D4000C801E091AF01F091B001309749F082E0F5
:103D50008093CD010480F581E02D8DEC91E00994F4
:103D600008951F920F920FB60F9211248F939F9375
:103D7000AF93BF938091B101811113C08091640210
:103D800090916502A0916602B09167024196A11DD3
:103D9000B11D8093640290936502A0936602B09374
:103DA0006702BF91AF919F918F910F900FBE0F90BF
:103DB0001F9018959C012A5F3F4FFC0142814613DA
:103DC00001C01282019682179307B9F708959C01EA
:103DD000FC0132969FEF80E04191461789F09F3FAA
:103DE00019F4411101C0982F8F5F8630A9F79F3FCA
:103DF00039F0F901E90FF11D97FDFA9562830895F5
:103E00000895CF9384E090E00E945C26C82F81E261
:103E100090E00E945C262C2F30E0A901582BCA01AB
:103E2000CF91089580E090E00E946A2621E08C3EC8
:103E30009E4F09F020E0822F08956CEE7EEF80E027
:103E400090E00E948E2660E082E090E00E94702662
:103E500060E083E090E00E94702610926002109271
:103E60006102109262021092630260E084E090E0CE
:103E70000E94702660E081E290E00E94702660E07F
:103E800085E090E00E94702660E086E090E00E946D
:103E900070266FEF87E090E00E94702640E050E0CF
:103EA000BA0188E090E00E94822660E08DE090E018
:103EB0000E94702640E050E0BA0188E190E00E9444
:103EC000822660E087E190E00E94702640E050E0AA
:103ED000BA018CE190E00E94822660E080E290E0EE
:103EE0000E94702640E050E0BA0188E190E00E9414
:103EF000822640E050E0BA018FE090E00E948226E6
:103F000040E050E0BA0183E190E00C9482268B31CE
:103F100009F468C058F58B3009F486C078F486300F
:103F200009F445C020F4853009F44BC07FC08730C8
:103F300009F44AC0883009F477C078C0803109F4A8
:103F400064C068F48E3009F071C08091D40182FBA6
:103F5000222720F991E0922790FB82F94CC086310C
:103F600009F462C0893109F45FC060C08A32E1F0AF
:103F700060F4873209F455C028F48E3108F456C035
:103F80008D5150C08932E9F051C0833450F48A33E6
:103F900008F045C0853309F444C0883309F444C0AF
:103FA00045C08334F1F142C00E941D1F3DC0809185
:103FB000D401817F8E7F8093D40181E08093690258
:103FC00008950E94F41630C08091D401982F9095E6
:103FD000917090FB80F98093D401911125C0897F65
:103FE000877F10C08091D40181FB222720F991E0C6
:103FF000922790FB81F98093D4019923A9F08091B5
:10400000D40181608093D4010FC08091D40183FBDF
:10401000222720F991E0922790FB83F9ECCF895376
:1040200001C080E00E948C0E81E0089580E0089538
:1040300080915F02811110925F02089590915E025B
:1040400080915D02892B20915C02982F922B909396
:10405000F30180915F02882389F0892B8093F3011B
:10406000E5EFF1E097E080E0915029F021912223E3
:10407000D9F38F5FF9CF81110E941820E091AF0131
:10408000F091B001309731F00280F381E02D83EFA1
:1040900091E009940895BF92CF92DF92EF92FF9240
:1040A0000F931F93CF93DF938C01C090A801D09002
:1040B000A901E090AA01F090AB018091600290917B
:1040C0006102A0916202B0916302C82AD92AEA2A49
:1040D000FB2ACFE1D0E0D701C6010C2E04C0B69573
:1040E000A795979587950A94D2F780FD04C02197EC
:1040F00090F7B12C07C0BC2EB8018C2F0E944A1536
:104100000197A9F38B2DDF91CF911F910F91FF9014
:10411000EF90DF90CF90BF900895CF93DF93EC01A5
:104120000E944B20BE010E944A15DF91CF91089555
:1041300028E0929F800D1124682F669566956695FC
:10414000982F977085E0689FB001112440E050E0FF
:1041500080E0FB01E40FF51FED5CFD4F208130E0B6
:10416000092E02C0369527950A94E2F7217033276D
:10417000042E01C0220F0A94EAF7822B4F5F5F4F93
:104180004530510531F7089528E0929F800D1124A4
:10419000E82FE695E695E695877051E001C0550F4A
:1041A0008A95EAF785E0E89FF0011124ED5CFD4F68
:1041B00020E030E070E04081CB01022E02C09695F5
:1041C00087950A94E2F78170819584278523842757
:1041D00081932F5F3F4F2530310569F70895609334
:1041E000A8017093A9018093AA019093AB010C944C
:1041F000E7100F931F9341E050E060E070E004C0CF
:10420000440F551F661F771F8A95D2F7409550952A
:10421000609570958091A8019091A901A091AA0143
:10422000B091AB018A019B01082319232A233B2368
:10423000C901B8011F910F910C94EF2020915B02EE
:104240008095822380935B02982F977079F430E0F9
:10425000482F082E000C550B2417350739F085958B
:10426000859585950E94F92010925B0208950F9321
:104270001F9341E050E060E070E004C0440F551F20
:10428000661F771F8A95D2F78091A8019091A901A6
:10429000A091AA01B091AB018A019B01082B192BB7
:1042A0002A2B3B2BC901B8011F910F910C94EF20D1
:1042B0006093600270936102809362029093630244
:1042C0000C94E7108091320290910102891719F045
:1042D0008F5F8770FBCF0895EF92FF920F931F932C
:1042E000CF93DF937C018B010E94530A811119C087
:1042F000E70101151105A1F08091E80085FD0AC0D4
:104300008091E8008E778093E8000E94530A88230A
:1043100081F307C089918093F10001501109E9CF21
:1043200080E0DF91CF911F910F91FF90EF90089562
:104330001F93CF93DF93CDB7DEB7AA970FB6F8944C
:10434000DEBF0FBECDBFE9E7F2E08091F1008193BF
:1043500022E0E138F207C9F780917A02833009F44C
:1043600060C030F4813071F0823009F49AC0B1C07D
:104370008A3009F486C08B3009F46BC0893009F0AB
:10438000A8C020C080917902813A09F0A2C0809132
:10439000E800877F8093E80080917D0290917E0203
:1043A000892B21F468E08DE692E003C060E080E0B4
:1043B00090E070E00E94DA0A8091E8008B778093A9
:1043C000E80087C080917902813209F082C0809133
:1043D0007D0290917E02029708F07BC08091E800F8
:1043E000877F8093E8008091E80082FD05C080917E
:1043F00077028111F8CF6DC02091F3008091F20017
:1044000090E0922B029729F48091F1008B7F81300C
:1044100021F48091F10080936C028091E8008B7709
:1044200054C080917902813A09F053C080917D0295
:1044300090917E02892B09F04CC08091E800877F23
:104440008093E8008091E80080FFFCCF80912201FA
:1044500037C0809179028132E1F580917D0290919F
:104460007E02892BB1F58091E800877F8093E80078
:104470000E94860A80917B02809322010E9404118F
:1044800028C080917902813221F58091E800877FF0
:104490008093E8000E94860A80917C0280936B02E0
:1044A00018C080917902813AA1F48091E800877F59
:1044B0008093E8008091E80080FFFCCF80916B0240
:1044C0008093F1008091E8008E778093E8000E944D
:1044D000860A8091E80083FFCCC180917902909197
:1044E0007A02492F50E04A30510508F0C2C1FA0162
:1044F000EC57FF4F0C944B27803821F0823809F09D
:10450000B8C108C08091750290917602992389F014
:1045100082600FC080917D028F70873008F0A9C142
:104520008093E9008091EB0085FB882780F9109249
:10453000E9009091E800977F9093E8008093F10064
:104540001092F10065C1282F2D7F09F092C18823B8
:1045500019F0823061F08DC180917B02813009F0C9
:1045600088C1933009F080E0809376022EC080915C
:104570007B0281112AC080917D028F702FEF280F5E
:10458000263008F076C18093E9002091EB0020FFEF
:104590001CC0933021F48091EB00806214C0909194
:1045A000EB0090619093EB0021E030E0A90102C0A4
:1045B000440F551F8A95E2F74093EA001092EA00F3
:1045C0008091EB0088608093EB001092E90080916D
:1045D000E800877F20C181114CC110917B021F77B9
:1045E0008091E3008078812B8093E3008091E80044
:1045F000877F8093E8000E94860A8091E80080FF10
:10460000FCCF8091E30080688093E300111102C029
:1046100082E001C083E0809377022BC18058823012
:1046200008F027C180917B0290917C028C3D53E081
:10463000950779F583E08A838AE289834FB7F894F6
:10464000DE01139620E03EE051E2E32FF0E05093CC
:104650005700E49120FF03C0E295EF703F5FEF70D9
:104660008E2F90E0EA3010F0C79601C0C0968D936F
:104670009D932F5F243149F74FBF8091E800877FDA
:104680008093E8006AE270E0CE0101960E94DA0AA7
:10469000AEC040917D0250917E02292F33272330F6
:1046A0003105A9F068F42130310509F4F1C0223058
:1046B000310509F0DEC08BE390E0E7E7F5E044C0A8
:1046C0002132310521F12232310571F1D2C0992711
:1046D00081309105A1F058F0029709F0CAC0E4ECCE
:1046E000F5E0E4918E2F90E0E4ECF5E02AC0E6EFEF
:1046F000F5E0E4918E2F90E0E6EFF5E022C0ECEDDE
:10470000F5E0E4918E2F90E0ECEDF5E01AC0411554
:10471000510509F4C2C04130510509F0AAC089E031
:1047200090E0E2EAF5E010C04115510509F4BAC085
:104730004130510509F09DC081E890E0E6EBF4E0DE
:1047400003C0009709F495C02091E800277F2093CB
:10475000E80020917F02309180028217930708F4CD
:104760009C0140E02115310589F180917702882371
:1047700009F43DC08530D9F18091E80083FD37C050
:104780008091E80082FD2FC08091E80080FFEACF91
:104790004091F3008091F20090E0942B21153105B7
:1047A00059F08830910540F444914093F1003196DE
:1047B000215031090196F2CF41E0089709F040E01D
:1047C0008091E8008E778093E800CCCF4111CDCF67
:1047D0000AC080917702882351F0853041F08091A2
:1047E000E80083FD04C08091E80082FFF2CF809151
:1047F000E8008B778093E8003CC08038D1F5809149
:10480000E800877F8093E800809178028093F10030
:104810008091E8008E778093E8000E94860A29C084
:10482000811127C080917B0290917C029927029789
:1048300004F58091E800877F8093E80010917B0267
:10484000109378020E94860A111106C08091E3003D
:1048500087FD02C081E001C084E08093770242E0DE
:1048600061EC81E00E94A50A42E261EC82E00E94D4
:10487000A50A8091E80083FF1AC08091E800877F35
:104880008093E8008091EB0080628093EB000FC082
:1048900082E190E0E2EBF5E057CF89E090E0E9E8D3
:1048A000F5E052CF80E490E0E7E3F5E04DCFAA9643
:1048B0000FB6F894DEBF0FBECDBFDF91CF911F9131
:1048C00008951F920F920FB60F9211242F933F93CA
:1048D0004F935F936F937F938F939F93AF93BF9308
:1048E000CF93DF93EF93FF93C091E900CF70809156
:1048F000EC00D82FD17080FDD0E81092E9008091B3
:10490000F000877F8093F00078940E9498211092A5
:10491000E9008091F00088608093F000CD2BCF708B
:10492000C093E900FF91EF91DF91CF91BF91AF91DB
:104930009F918F917F916F915F914F913F912F91B7
:104940000F900FBE0F901F901895E8EDF0E080815A
:104950008E7F80831092E2001092DA001092E100C4
:10496000A0EEB0E08C9181608C9380818F77808302
:1049700019BCA7EDB0E08C918E7F8C9380818F7EE7
:10498000808310926A020895CF92DF92EF92FF9295
:104990000F931F93CF93DF93C8EDD0E088818F7E74
:1049A0008883E7EDF0E080818160808384E082BFCE
:1049B00081E080936A0288818E7F888302EE10E016
:1049C000F80110821092DA0081EEC82ED12CF60187
:1049D000108288818F778883888180688883888126
:1049E0008F7D888319BC1092770210927802109202
:1049F00076021092750290EEE92EF12CF70180817B
:104A00008B7F808388818160888342E060E080E0E2
:104A10000E94A50AF60180818E7F8083F801808143
:104A200081608083808188608083F70180818E7FB0
:104A30008083888180618883DF91CF911F910F915E
:104A4000FF90EF90DF90CF9008951F920F920FB6D6
:104A50000F9211242F933F934F935F936F937F9304
:104A60008F939F93AF93BF93EF93FF938091E10058
:104A700082FF09C08091E20082FF05C08091E100C1
:104A80008B7F8093E1008091DA0080FF2AC08091C3
:104A9000D80080FF26C08091DA008E7F8093DA00F4
:104AA0008091D90080FF18C080E189BD82E189BD75
:104AB00009B400FEFDCF81E08093770280916A0205
:104AC00081110FC00E94A5240E94C4248091E2009D
:104AD00084608093E20005C019BC109277021092A6
:104AE0006A028091E10080FF17C08091E20080FFA0
:104AF00013C08091E2008E7F8093E2008091E200FB
:104B000080618093E2008091D80080628093D80019
:104B100019BC85E0809377028091E10084FF34C066
:104B20008091E20084FF30C080E189BD82E189BDCF
:104B300009B400FEFDCF8091D8008F7D8093D8000E
:104B40008091E1008F7E8093E1008091E2008F7E72
:104B50008093E2008091E20081608093E200809186
:104B60007802882311F084E007C08091E30087FD7C
:104B700002C081E001C083E0809377020E940411AB
:104B80000E94271B0E94031A8091E10083FF27C027
:104B90008091E20083FF23C08091E100877F8093B2
:104BA000E10082E080937702109278028091E10028
:104BB0008E7F8093E1008091E2008E7F8093E200FF
:104BC0008091E20080618093E20042E060E080E05A
:104BD0000E94A50A8091F00088608093F000FF9108
:104BE000EF91BF91AF919F918F917F916F915F9165
:104BF0004F913F912F910F900FBE0F901F901895DE
:104C00008F929F92AF92BF92CF92DF92EF92FF92DC
:104C1000CF93DF93EC01688179818A819B81611553
:104C200071058105910521F464E279ED8BE597E04A
:104C30002DE133EF41E050E00E94A42649015A01E2
:104C40009B01AC01A7EAB1E40E94C3266B017C0181
:104C5000ACEEB4EFA50194010E94D126DC01CB019A
:104C60008C0D9D1DAE1DBF1DB7FF03C00197A1098F
:104C7000B04888839983AA83BB839F77DF91CF91C4
:104C8000FF90EF90DF90CF90BF90AF909F908F906C
:104C900008950E940026089580E091E00E94002679
:104CA0000895A0E0B0E08093000190930101A093EB
:104CB0000201B09303010895F999FECF92BD81BD21
:104CC000F89A992780B50895A6E1B0E044E050E055
:104CD0000C949626A8E1B0E042E050E00C949626B1
:104CE000262FF999FECF92BD81BDF89A019700B4A5
:104CF000021639F01FBA20BD0FB6F894FA9AF99A45
:104D00000FBE08950396272F0E9471260E947026D9
:104D1000252F0E947126242F0C9471260196272F8F
:104D20000E9471260C947026DC01CB01FC01F999DC
:104D3000FECF06C0F2BDE1BDF89A319600B40D92E7
:104D400041505040B8F70895052E97FB1EF400948B
:104D50000E94BB2657FD07D00E94D62607FC03D031
:104D60004EF40C94BB2650954095309521953F4FBD
:104D70004F4F5F4F089590958095709561957F4F47
:104D80008F4F9F4F08950E94F826A59F900DB49FC6
:104D9000900DA49F800D911D11240895B7FF0C94D0
:104DA000C3260E94C326821B930B0895A1E21A2EEC
:104DB000AA1BBB1BFD010DC0AA1FBB1FEE1FFF1FBF
:104DC000A217B307E407F50720F0A21BB30BE40B0F
:104DD000F50B661F771F881F991F1A9469F7609556
:104DE0007095809590959B01AC01BD01CF01089510
:104DF000A29FB001B39FC001A39F700D811D11241C
:104E0000911DB29F700D811D1124911D0895DB012C
:104E10008F939F930E94C326BF91AF91A29F800D55
:104E2000911DA39F900DB29F900D11240895991B81
:104E300079E004C0991F961708F0961B881F7A9591
:104E4000C9F780950895AA1BBB1B51E107C0AA1F93
:104E5000BB1FA617B70710F0A61BB70B881F991F1B
:104E60005A95A9F780959095BC01CD01089597FBBF
:104E7000072E16F4009407D077FD09D00E9423274F
:104E800007FC05D03EF4909581959F4F089570954D
:104E900061957F4F0895EE0FFF1F0590F491E02D6F
:104EA00009940E94F826332312F48A1B9B0B0C945E
:104EB0005B270E94F826B7FF0895821B930B089585
:104EC000FC014150504030F001900616D1F7319767
:0E4ED000CF010895882799270895F894FFCF01
:104EDE00010000001E32CA09270A080A040A000A45
:104EEE0001191A1B1C1D1E1F202122010201280858
:104EFE00140A01303132333435363790919293940F
:104F0E00959697010203040506070809008182831E
:104F1E00E200E900EA00B500B600B700CD0083015B
:104F2E00CC008A019201940121022302240225025F
:104F3E00260227022A02B300B4006F00700000019F
:104F4E00020202020606060909090909090F0F0FD6
:104F5E000F0F0F15151518191919191919191919DE
:0A4F6E0019232425252525252500FB
:00000001FF
