:100000000C94FA020C9441030C9441030C944103A8
:100010000C9441030C9441030C9441030C94410350
:100020000C9441030C9441030C9403220C943F2143
:100030000C949C230C9441030C9441030C944103B5
:100040000C9441030C944B150C9441030C94410304
:100050000C9433150C945B230C9441030C944103D2
:100060000C9441030C9441030C9441030C94410300
:100070000C9441030C9441030C9441030C944103F0
:100080000C9428110C9441030C9441030C944103EB
:100090000C9441030C9441030C9441030C944103D0
:1000A0000C9441030C9441030C9441034E067306D7
:1000B00078067D06820687068C06910696069B06C4
:1000C000A006A706AA06AD06B006B306B606B90690
:1000D000BC06C1061807180752075207A507C10733
:1000E00053095309CC07AA08BB08BB08B71AB71AAB
:1000F000CA1ACA1AC01ACA1ACA1ACA1AB71AB71A10
:10010000C51ACA1ACA1AC51A5A1F811F1721811F78
:100110001721C91FEC1F1721DB20EE2029001E002C
:100120001F002000210022002300240025002600BB
:1001300027002D002E0000002A002B0014001A00BA
:100140000800150017001C0018000C001200130016
:100150002F0030003100E000040016000700090005
:100160000A000B000D000E000F00330034002800C1
:10017000E10000001D001B00060019000500110031
:100180001000360037003800E50000000151025130
:10019000E2002C00E600E3000251015135003A0074
:1001A0003B003C003D003E003F004000410042005B
:1001B00043004400450000004C0001000100010024
:1001C0004D0001000100010001000100010052008A
:1001D000AA00A900490001004A007E004C004F001F
:1001E00029002A000100A800AC00AE00AB0001000D
:1001F000010000000100010001004E00500051000C
:1002000028000100BE00BD00010000000100010047
:1002100001000100010001000100010035000100A2
:1002200001000100010001000100010001000100C6
:1002300001000100010000004C0001000100040069
:100240004D00010001000100010001000100520009
:10025000AA00A900010001004A0004004C014F015E
:1002600029002A010100A800AC00AE00AB0001008B
:10027000010000000100010001004B00500151008D
:1002800028000100BE00BD000100000001000100C7
:100290000100010001000100010001000001010155
:1002A0000101010101010202020202020202020333
:1002B0000303030303030304040404040404050503
:1002C00005050506060606060707070707080808C6
:1002D00008090909090A0A0A0B0B0B0C0C0C0D0D75
:1002E0000D0E0E0E0F0F0F1010111111121213130D
:1002F0001414151516161717181819191A1A1B1B86
:100300001C1D1D1E1E1F20202122222324242526E1
:1003100026272829292A2B2C2D2D2E2F3031323219
:10032000333435363738393A3B3C3D3E3F40414225
:10033000434445464748494A4C4D4E4F505153540B
:10034000555658595A5B5D5E5F61626465666869BF
:100350006B6C6D6F7072737577787A7B7D7E80823F
:10036000838587888A8C8E8F91939596989A9C9E88
:10037000A0A2A3A5A7A9ABADAFB1B3B5B7BABCBE98
:10038000C0C2C4C6C9CBCDCFD1D4D6D8DBDDDFE265
:10039000E4E7E9EBEEF0F3F5F8FAFDFFFFAA7F558D
:1003A000402223252628292A2C2D2F30323335367A
:1003B000383A3B3D3E4042434547494A4C4E5051F6
:1003C000535557595A5C5E6062646668696B6D6F1D
:1003D00071737577797B7D7F81838587898A8C8E20
:1003E00090929496989A9C9E9FA1A3A5A7A8AAAC28
:1003F000AEAFB1B3B4B6B8B9BBBCBEBFC1C2C3C562
:10040000C6C7C9CACBCCCDCED0D1D2D2D3D4D5D603
:10041000D7D7D8D9D9DADADBDBDBDCDCDCDCDCDD36
:10042000DDDDDDDCDCDCDCDCDBDBDBDADAD9D9D81A
:10043000D7D7D6D5D4D3D2D2D1D0CECDCCCBCAC9B2
:10044000C7C6C5C3C2C1BFBEBCBBB9B8B6B4B3B1E1
:10045000AFAEACAAA8A7A5A3A19F9E9C9A9896947C
:1004600092908E8C8A89878583817F7D7B79777551
:1004700073716F6D6B6968666462605E5C5A595730
:10048000555351504E4C4A4947454342403E3D3BEF
:100490003A3836353332302F2D2C2A292826252379
:1004A000221E0F0500047F3F1F643214643214784B
:1004B0003C1E1E140A0505010902A101850209015D
:1004C000A1000509190129081500250195087501E4
:1004D00081020501093009311581257F95027508D2
:1004E000810609381581257F950175088106050C5F
:1004F0000A38021581257F950175088106C0C0055F
:10050000010980A101850319012AB700150126B749
:1005100000950175108100C0050C0901A101850439
:1005200019012AA002150126A0029501751081006B
:10053000C005010906A101050719E029E7150025F5
:10054000019508750181029501750881010507195A
:100550000029FF150026FF00950675088100050893
:100560001901290595057501910295017503910100
:10057000C009023B00020100A0FA090400000103C7
:10058000010100092111010001224000070581033A
:1005900008000A09040100010300000009211101FB
:1005A0000001227B000705820320000A12011001CE
:1005B0000000000832745806010001020001160311
:1005C00056003600300020005400790070006500AD
:1005D00020005200000018034B0042002000500091
:1005E0006100720061006400690073006500000032
:1005F0000403090411241FBECFEFDAE0DEBFCDBF34
:1006000004B603FE27C08091830290918402A091DA
:100610008502B09186028730904BA740B04BD1F451
:100620001092830210928402109285021092860228
:1006300014BE84B7877F84BF0FB6F894A8958091C5
:100640006000886180936000109260000FBEE0E05F
:10065000F8E3099511E0A0E0B1E0E2E4FFE402C0B4
:1006600005900D92AA39B107D9F722E0AAE9B1E0C5
:1006700001C01D92A338B207E1F70E942D170C9418
:100680009F270C9400008F929F92AF92BF92CF92BF
:10069000DF92EF92FF920F931F93CF93DF93CDB72B
:1006A000DEB72A970FB6F894DEBF0FBECDBFFC01B0
:1006B000D080118183819481892B39F01F3F39F4D7
:1006C00091E00FEFD01203C003C091E001C090E0B1
:1006D00090FD47C67F0185E0DE01169601900D92E0
:1006E0008A95E1F7F70122818E819F81222349F0CB
:1006F0000E94A524082F682F8E819F810E941E25AD
:1007000003C00E94F224082FE12FF0E018E0019FBF
:10071000E00DF11D112443E0EE0FFF1F4A95E1F7B4
:10072000ED0DF11DEE0FFF1FE45EFE4F05911491DC
:1007300080919D0160919C0140919E01F701928101
:100740000B32FDE51F07E1F148F409323DE51307DF
:1007500079F00A32EDE51E07A1F045C00D32FDE546
:100760001F07C9F0B0F10E323DE5130701F13BC0A0
:10077000992309F4D7C590E1980F981750F49FEF8B
:1007800008C0992309F4CEC590EF980F891708F493
:1007900090E0892F09C0992309F4C4C590E1940F12
:1007A000941708F49FEF492F0E949115BBC5992318
:1007B00009F4B8C590EF940F4917A8F790E0F3CF6C
:1007C000992309F4AFC590E1960F961750F49FEF67
:1007D00008C0992309F4A6C590EF960F691708F48D
:1007E00090E0692FE1CF992309F4AAC00E3B8CE574
:1007F0001807C1F188F40C3BFCE51F07C9F00D3B5D
:100800002CE5120709F09CC080919F0187708E7FB4
:1008100080939F0180E01DC0003C3CE5130709F474
:1008200072C008F457C0013CECE51E0759F188C0BE
:1008300080919F018770886180939F01887F91E0FC
:1008400009F490E080919F0190FB80F980939F01D3
:1008500083E00E94B81460919F0186E090E00E94BE
:10086000A22660C580919F01982F969596959695A2
:1008700059F1915E990F990F990F8770892B809389
:100880009F0114C090919F01892F8695869586952A
:100890008F5F8F719770843008F04FC0880F880F7A
:1008A000880F892B80939F0180919F01887F91E021
:1008B00009F490E060919F0190FB60F960939F01C3
:1008C00086E090E00E94A22680919F018695869501
:1008D000869525C020919F01822F869586958695C5
:1008E000482F50E04330510554F48F5F982F990FF3
:1008F000990F990F822F8770892B80939F016091A8
:100900009F016160DBCF60919F0160FF0BC06E7F34
:1009100060939F0186E090E00E94A22680E00E9402
:10092000B81400C5616060939F01613019F489E0DB
:1009300080939F0160919F01C3CF90939F01B4CF9B
:10094000043F2CE5120799F406E221EE40EE64EF35
:100950007CE509C0083DFCE51F0711F506E221EE24
:1009600041EE68ED7CE5C7010E942D14DBC4053F14
:100970003CE5130708F040C1093D8CE5180731F448
:1009800007E225EE45EE69ED7CE5EDCF0A3DECE5AD
:100990001E0701F708E221E045EE6AED7CE5E3CFB2
:1009A000992309F45EC11092A0010230FCE51F07F3
:1009B00008F441C106312CE5120738F098012B5F8D
:1009C0003C452930310508F036C10E94EC23909354
:1009D000C4018093C30100313CE5130709F4C3C08F
:1009E00008F041C008309CE5190709F49AC0F0F4FA
:1009F0000430FCE51F0709F487C068F402303CE5C9
:100A0000130709F477C003301C4509F0E5C0809155
:100A1000C301826076C006309CE5190709F46EC0F8
:100A200008F07BC08091C30188606BC00C30FCE58E
:100A30001F0709F485C068F40A303CE5130709F480
:100A400074C008F079C00E949A1C8091C30180682C
:100A500058C00E309CE5190709F476C008F07FC035
:100A60008091C3018BC00C3FFCE51F0709F44FC008
:100A700018F503313CE5130709F47DC078F4013122
:100A80009CE5190709F473C002311C4509F0A4C0A4
:100A90000E949A1C8091C3018F7733C00531FCE519
:100AA0001F0709F472C008F486C00B3F1C4509F00B
:100AB00093C08091C4013EC001158DE5180709F46B
:100AC0005FC058F40E3FECE51E0709F444C008F47B
:100AD0003FC08091C40182602DC002302DE5120715
:100AE00009F475C008F45DC003301D4509F074C0F9
:100AF00060E06EC08091C301816003C08091C3013A
:100B000080618093C30168C08091C30111C080914E
:100B1000C40182608093C4015FC08091C301806280
:100B2000F0CF8091C3018064ECCF8091C3018860D5
:100B30008460E7CF8160EECF8091C3018E7FE1CFEB
:100B40008091C3018D7FDDCF8091C301877FD9CF95
:100B50008091C40118C08091C4018D7FDBCF80914A
:100B6000C3018F7ECECF8091C3018F7DCACF80918C
:100B7000C3018F7BC6CF8091C301877F8B7FC1CF9D
:100B80008091C4018D7F8E7FC5CF8091C30182FB90
:100B9000222720F991E0922790FB82F990FB83F9BC
:100BA000B0CF8091C401982F909591708E7F892B42
:100BB00090FB81F9AFCF0E949A1C8091C30187FB03
:100BC000222720F991E0922790FB87F99ACF61E0E4
:100BD0008EE090E00E94A2266091C3011091C401B2
:100BE00084E090E00E94A226612F81E290E00E94C2
:100BF000A2260E949A1C96C3063F2CE5120731F4E8
:100C000006E221EE42EE66EF7CE5ADCE063F3CE526
:100C1000130730F407E225EE44EE65EF7CE5A3CE42
:100C2000073F8CE5180709F0BBCE07E225EE46EE3C
:100C300067EF7CE598CE80917D020631ECE51E07DA
:100C400009F58A7A91E009F490E09093A101882354
:100C500011F065E301C069E282E192E00E94D223D3
:100C60000EC006311C4509F09EC08091A101882369
:100C700009F475C365E382E192E00E94C5230E94F6
:100C8000782450C38272F801E35CFC45E431F1053D
:100C900008F07CC0EA5AFF4F0C947D278091DB015D
:100CA00080FF1BC08E7F8093DB016091DB01709120
:100CB000DC018091DD019091DE010E94730A1092A7
:100CC000E1019FEFE0E7F2E09150E040F040E1F712
:100CD00000C000000E94791125C381608093DB0170
:100CE00061E0869550C049EE5AE062EF7AE02CC090
:100CF00042EF5AE069EE7AE027C047E35AE060E449
:100D00007AE022C040E45AE067E37AE01DC04FE198
:100D10005AE06BE27AE018C04BE25AE06FE17AE009
:100D200013C047E05AE063E17AE00EC043E15AE0C5
:100D300067E07AE009C045E85AE066E97AE004C075
:100D400046E95AE065E87AE00E948B15EBC261E063
:100D500081E019C065E082E011C068E086E00EC065
:100D60006EE089E00BC064E18FE008C067E185E1D7
:100D700005C061E088E107C062E289E10E9479155F
:100D8000D1C261E083E20E94A70ACCC201152CE522
:100D9000120731F00F3D1C4531F40E940824C2C2F5
:100DA0000E946810BFC2F70100811181992349F0A8
:100DB000C8010E94A524D82E682FC8010E941E25B4
:100DC00004C0C8010E94F224D82EB8018D2D0E94C3
:100DD000BE0E8C01982EF701D280A580A2943FE030
:100DE000A32280917A02877099F0DD2089F0812F0B
:100DF000807F803421F080E2800F883048F082E0EC
:100E00000E94782580917A028770CC24C394811146
:100E1000C12CB12EB2942FE0B2228B2D90E08C30F9
:100E2000910508F040C2FC01E659FF4F0C947D2764
:100E3000812F807F1F70882311F01295107FDD2095
:100E4000B9F0112309F41AC280E2800F883010F043
:100E5000911006C080917D02182B10937D0205C071
:100E600080917C02182B10937C020E94782406C289
:100E7000802F0E94BA1C112309F415C2005E109540
:100E8000083010F0911006C080917D021823109355
:100E90007D0205C080917C02182310937C020E9481
:100EA000782401C2812F807F1F70803211F012954B
:100EB000107F992021F0F1E09F16E1F02AC0DD209B
:100EC00081F080917E02AA2051F001E0A01207C0BB
:100ED000182B181709F4E7C110937E02E4C1812B87
:100EE00010C0AA2021F021E0A21609F4DCC10E9462
:100EF000722427C0DD2041F035E03A1508F4D3C153
:100F0000812F0E94B01CCFC184E08A1508F4CBC1A8
:100F100018C0DD2049F0AA2099F3F701858180FFF0
:100F2000ADC18F708583ECCFAA2059F0093309F049
:100F3000B7C1FFEF17EE23E0F15010402040E1F77A
:100F4000ADC1812F0E94A51CAEC1812F86958695CB
:100F5000837019F0813059F0A6C1DD2019F0C80165
:100F6000937002C080E090E00E940B14A2C1DD20CB
:100F700019F0C801937002C080E090E00E94F51360
:100F800098C1802FDD2019F00E94DE0C02C00E9463
:100F9000E50B0E94BB0B8DC1812F837009F069C0E6
:100FA000D11085C1902F929596959770990F990FB2
:100FB000802F8F70882E912CA12CB12C092E04C06B
:100FC000880C991CAA1CBB1C0A94D2F704FF12C0FF
:100FD0004FE050E060E070E004C0440F551F661F12
:100FE000771F9A95D2F7DB01CA0180959095A0955D
:100FF000B09503C080E090E0DC0116951695412F76
:101000004370423019F1C8F400917F0210918002C0
:101010002091810230918202413059F0882999292A
:10102000AA29BB29BC01CD0160237123822393230C
:101030000AC0802A912AA22AB32ABC01CD016829BC
:1010400079298A299B290E94B22531C188299929A9
:10105000AA29BB2900917F02109180022091810270
:1010600030918202BC01CD0160277127822793272E
:10107000EACFDD2019F0812F817001C08695882389
:1010800009F415C1902F929596959770990F990F25
:10109000802F8F70882E912CA12CB12C092E04C08A
:1010A000880C991CAA1CBB1C0A94D2F704FF12C01E
:1010B0004FE050E060E070E004C0440F551F661F31
:1010C000771F9A95D2F7DB01CA0180959095A0957C
:1010D000B09503C080E090E0DC0116951695412F95
:1010E00043704230D9F068F50091BF011091C00102
:1010F0002091C1013091C201413059F088299929CC
:10110000AA29BB29BC01CD0160237123822393232B
:101110001EC0802A912AA22AB32A13C0882999299D
:10112000AA29BB290091BF011091C0012091C101E2
:101130003091C201BC01CD0160277127822793271E
:1011400006C0BC01CD01682979298A299B290E9402
:101150004925ADC01F70DD2039F0812F0E949125F7
:10116000802F0E94B01CA3C0802F0E94A51C812F3D
:101170000E9453259CC0802F32EF931609F440C083
:10118000391538F090EF991661F0E1EF9E1699F15C
:1011900070C0F3EF9F16D9F124EF921609F44EC0F8
:1011A00068C0DD2019F134E03A1508F47CC01F71E5
:1011B00081E090E0A0E0B0E0AC01BD0104C0440FCC
:1011C000551F661F771F1A95D2F78091BF01909126
:1011D000C001A091C101B091C2018A019B01082701
:1011E00019272A273B27C901B80121C025E02A1564
:1011F00008F459C0DCCFDD2029F0812F8F712CC07D
:10120000DD20D9F3812F8F710E9453254CC0DD2042
:1012100089F01F7181E090E0A0E0B0E0BC01CD0159
:1012200004C0660F771F881F991F1A95D2F70E9476
:10123000492539C060E070E0CB01F9CFDD2079F0BD
:101240001F71812F0E94912538E0139FC001112446
:10125000836080937A02812F0E94912524C081E0CF
:101260000E94782581E08A15F0F482E00E947825BA
:101270001AC0DD2039F0AA2009F4BFCF802F0E94C8
:10128000211D11C0AA2009F4BDCF893349F49FEF75
:10129000E7EEF3E09150E040F040E1F700C00000DD
:1012A000802F0E94BA1C88EF8B0D843010F40E94AE
:1012B0002114CC20A9F080917A0280FD11C0F701A1
:1012C00012828595859585950E949125C7010E947A
:1012D000430380917A028595859585950E945325D3
:1012E00085E0F701DE01119601900D928A95E1F7F4
:1012F00089819A810E94F224EA81F0E008E0809FCF
:10130000E00DF11D112483E0EE0FFF1F8A95E1F738
:101310008981E80FF11DEE0FFF1FE45EFE4F8591FE
:1013200094911FC080917A028770D9F0F701828171
:101330008823B9F082E02A960FB6F894DEBF0FBE7C
:10134000CDBFDF91CF911F910F91FF90EF90DF9074
:10135000CF90BF90AF909F908F900C94782569E2CA
:101360008ACC2A960FB6F894DEBF0FBECDBFDF91B0
:10137000CF911F910F91FF90EF90DF90CF90BF9092
:10138000AF909F908F9008959091C30192FF0DC0F0
:10139000282F2871283019F4877F846006C0282FF1
:1013A0002471243011F48B7F886093FF0DC0282FA7
:1013B0002871283119F4877E846106C0282F247192
:1013C000243111F48B7E88612091C40120FF0DC06F
:1013D000382F3871383019F4877F816006C0382F74
:1013E0003171313011F48E7F886021FF0DC0282FBC
:1013F0002871283119F4877E816106C0282F217158
:10140000213111F48E7E886194FD877E0895EBED85
:10141000F1E0438121E1421B08F440E021E06281D8
:1014200081810C94DE15EBEDF1E0438121E1420F67
:1014300008F44FEF21E0628181810C94DE15EBED21
:10144000F1E0628121E1621B08F460E021E0438168
:1014500081810C94DE15EBEDF1E0628121E1620FF8
:1014600008F46FEF21E0438181810C94DE15EBEDF0
:10147000F1E0818121E04381628188500C94DE1586
:10148000EBEDF1E0818121E043816281885F0C9482
:10149000DE150F931F9341E050E060E070E08A0199
:1014A0009B0104C0000F111F221F331F8A95D2F722
:1014B000C901B8010E94B2251F910F910C949A1C8A
:1014C0008091DB01282F269530E02115310519F494
:1014D0008170826005C02B32310524F081708465F3
:1014E0008093DB010895CF92DF92EF92FF926B0120
:1014F0007C010E94600AB701A60188E090E0FF909D
:10150000EF90DF90CF900C94B4268091DF01882378
:1015100019F081508093DF016091DB017091DC0153
:101520008091DD019091DE010C94730A8091DF01BE
:10153000833018F48F5F8093DF016091DB0170913D
:10154000DC018091DD019091DE010C94730A909191
:10155000DB0190FF3DC09170811102C0926006C016
:101560008B3210F0946502C0880F982B9093DB01AA
:10157000662351F06091DB017091DC018091DD0107
:101580009091DE010E94730A6091DB01669570E024
:101590004BE050E084E091E00E949227892B19F003
:1015A0001092E10109C081E08093E1010E94902343
:1015B0009093D6018093D50181E08093D80120E0FB
:1015C0004091DE016091DD018091DC010C94DE151B
:1015D00008958091DB018695815009F48AE261E0EB
:1015E0000C94A70A8091DB0186958F5F8B3208F0FF
:1015F00081E061E00C94A70AEBEDF1E083E08083E9
:1016000011828FEF82838383148260817181828152
:1016100093810C94730AAF92BF92CF92DF92EF92B4
:10162000FF920F931F93CF93DF93E82EF62EE901DD
:10163000E42FF0E0611106C0E456FD4FE4914E2F17
:101640002E2F71C0062F10E0E456FD4F4491F42F69
:10165000C42ED12C26E0829FC00111242FEF30E050
:10166000B9010E9455275BEA5603C001579F900DB0
:1016700011248E0D911D8E0D911D582F550F580F51
:10168000D901A01BB10BAC9DC001AD9D900DBC9DBF
:10169000900D1124E92FF59ED0011124AB2FBB270B
:1016A0007901EA1AFB0AEC9CD001ED9CB00DFC9C80
:1016B000B00D11245901A51AB108A09E7001A19E78
:1016C000F00CB09EF00C1124EF2CFF242E193F09D2
:1016D0002C9D80012D9D100D3C9D100D1124212F5E
:1016E0006230710591F048F461157105E1F06130E7
:1016F0007105B9F4242F4B2F16C06430710569F0C1
:1017000040F06630710579F00CC0242F492FE12F8D
:101710000AC0492FEF2F2B2F06C0292FE42F412F6E
:1017200002C0292FEB2F49832883EA83DF91CF91D1
:101730001F910F91FF90EF90DF90CF90BF90AF90EF
:101740000895CF93DF9300D01F92CDB7DEB790916D
:10175000DB0190FF0AC09E012F5F3F4F0E940B0BE1
:101760004B8169818A810E9491150F900F900F9093
:10177000DF91CF9108950E9490232091EA012111D9
:1017800004C02091EB01222321F09093E701809384
:10179000E6012091EC01211104C02091ED012223EA
:1017A00021F09093E4018093E301E091C601F09170
:1017B000C701309749F082E08093E8010480F58109
:1017C000E02D88EE91E0099408958D3E39F49091D2
:1017D000EB0197FF35C01092EB0159C08E3E29F402
:1017E0009091EB011916BCF32BC09091EA018F3E4A
:1017F00029F497FF25C01092EA0149C0803F19F4EF
:101800001916CCF31DC09091EC01893F29F41916EB
:10181000BCF41092EC013BC08A3F19F497FF10C052
:10182000F8CF8B3F39F49091ED0197FF09C01092EA
:10183000ED012DC08C3F21F49091ED011916BCF300
:101840009FE0980F983080F421E030E0A90102C0B9
:10185000440F551F9A95E2F7CA0180959091E901CE
:1018600089238093E90113C08D3F21F48091FA010F
:101870008E7F0BC08E3F21F48091FA018D7F05C0D1
:101880008F3F29F48091FA018B7F8093FA01809138
:10189000EA01811106C08091EB01811102C0109212
:1018A000E5018091EC01811106C08091ED0181116B
:1018B00002C01092E20108958091FA0180FF08C0F1
:1018C00060911F0170E0759567957595679521C0CA
:1018D00081FF06C060911F0170E07595679519C082
:1018E00082FF04C060911F0170E010C09091E2017E
:1018F000992399F060911E019617A0F780911F011E
:10190000899FC001112470E00E9469276038710529
:1019100040F46115710519F406C061E070E0862F8E
:1019200008958FE7089581E008958091FA0180FF7E
:101930000BC06091210185E0689FB001112475956D
:101940006795759567952BC081FF09C0609121014E
:1019500085E0689FB00111247595679520C082FFCE
:1019600007C06091210185E0689FB001112417C074
:101970009091E5019923D1F060912001961788F7A5
:101980002091210185E0289F90011124929FA001C0
:10199000939F500D112470E0CA010E94692760389E
:1019A000710540F46115710519F406C065E070E039
:1019B000862F08958FE7089581E008958D3E21F4E4
:1019C0000E94950C819504C08E3E29F40E94950CCE
:1019D0008093EB0108958F3E21F40E94950C819530
:1019E00004C0803F29F40E94950C8093EA01089579
:1019F000893F19F40E945C0C05C08A3F31F40E94B3
:101A00005C0C81958093EC0108958B3F21F40E943A
:101A10005C0C819504C08C3F29F40E945C0C80937F
:101A2000ED0108959FE0980F983078F421E030E0C0
:101A3000A90102C0440F551F9A95E2F7CA0190917F
:101A4000E901892B8093E90108958D3F21F480916C
:101A5000FA0181600BC08E3F21F48091FA0182600F
:101A600005C08F3F29F48091FA0184608093FA01C8
:101A70000895833011F128F4813049F0823091F0DB
:101A80000895853081F120F18630C1F1089580916B
:101A90001201681720F4861B80931201089510929A
:101AA0001201089580911301681720F4861B80931A
:101AB0001301089510921301089580912101681770
:101AC00020F4861B8093210108951092210108952E
:101AD00080912001681720F4861B809320010895CF
:101AE00010922001089580911F01681720F4861B31
:101AF00080931F01089510921F01089580911E0187
:101B0000681720F4861B80931E01089510921E0111
:101B10000895833081F128F4813059F08230D1F07A
:101B20000895853009F449C0B8F1863009F456C0EB
:101B3000089580911201262F30E0280F311D2F3F8C
:101B4000310524F4680F6093120108958FEF80939C
:101B50001201089580911301262F30E0280F311DC6
:101B60002F3F310524F4680F6093130108958FEF20
:101B700080931301089580912101262F30E0280FD2
:101B8000311D2F3F310524F4680F60932101089522
:101B90008FEF80932101089580912001262F30E05E
:101BA000280F311D2F3F310524F4680F6093200169
:101BB00008958FEF80932001089580911F01262FB3
:101BC00030E0280F311D2F3F310524F4680F60935A
:101BD0001F0108958FEF80931F01089580911E01CA
:101BE000262F30E0280F311D2F3F310524F4680FD8
:101BF00060931E0108958FEF80931E010895F8945D
:101C0000E82FE295EF70F0E031A1282F2F7081E0EE
:101C100090E001C0880F2A95EAF7982F90959323BA
:101C200091A392A1892B82A3789408958F929F9279
:101C3000AF92BF92CF92DF92EF92FF920F931F93DA
:101C4000CF93DF9387EBE82E81E0F82E9EE4A92E58
:101C500091E0B92E8701C0E0D0E0912CCC24C39450
:101C6000D12CB501D5018C91F894E82FE295EF7055
:101C7000F0E021A18F70A60102C0440F551F8A9584
:101C8000E2F7CA01922F982B91A392A18095892304
:101C900082A3789400C0E6E5F1E020E030E0812CFA
:101CA0004191842F82958F7090E0DC0190968C9109
:101CB00090E04F7002C0959587954A95E2F780FDB8
:101CC00007C08C2D022E01C0880F0A94EAF701C0CC
:101CD00080E0882A2F5F3F4F2830310509F7BFEF9A
:101CE000AB1ABB0AFB0180810E94FF0DC730D105F2
:101CF00019F0F0EAFA95F1F7D8018C91881619F0ED
:101D00008C9281E001C080E0982A21960F5F1F4FDE
:101D1000C830D10509F0A5CF992049F081E0809322
:101D2000A8010E9490239093A7018093A60180911F
:101D3000A8018823A9F08091A6019091A7010E9493
:101D40008123069768F0EDECF1E08FEB91E0D7018D
:101D50002D917D0121938A179B07C9F71092A80145
:101D6000892DDF91CF911F910F91FF90EF90DF9020
:101D7000CF90BF90AF909F908F900895CF93DF93B7
:101D8000E72FF0E028E0829FE00DF11D1124B3E081
:101D9000EE0FFF1FBA95E1F7E60FF11DEE0FFF1FE3
:101DA000E45EFE4FC591D491CE01C238D10569F1F0
:101DB000B0F4C133D10509F475C048F4C932D10576
:101DC00009F469C0CA32D10509F473C085C0C533AE
:101DD000D10509F459C0C933D105B9F07DC0C33E5E
:101DE000D10571F138F4C03ED105B1F0C23ED10544
:101DF00011F172C0C63ED105B9F1C73ED105C9F196
:101E0000C43ED10509F068C024C02091C30120FD63
:101E10005DC021FD5BC060C02091C30120FD50C0AA
:101E20002091C40120FF51C18091C30184FD4BC1A9
:101E300083EE90E04AC12091C30122FF46C1F4CF56
:101E40008091C30182FD3FC08091C40180FD3EC0EE
:101E5000EBCF2091C40121FF38C18091C30184FDE3
:101E600032C187EE90E031C12091C30123FF2DC123
:101E7000F4CF8091C30183FD2CC08091C40181FF08
:101E8000ECCF84EE90E021C12091C30125FF1DC15C
:101E900089E290E01AC12091C30125FF16C185E3B4
:101EA00090E013C12091C30126FF0FC18AE290E0A8
:101EB0000CC12091C30126FF08C181E390E005C158
:101EC00089E390E002C182EE90E0FFC080EE90E0F6
:101ED000FCC086EE90E0F9C0C11551E5D50708F0C9
:101EE0006CC0C11520E5D207F0F0CE01F4E0969564
:101EF0008795FA95E1F7282F23703C2F337081E006
:101F000090E002C0880F991F3A95E2F79C68922BE7
:101F10002C2F2F702695269540E2249F90011124A6
:101F2000822B932BD2C0C83ED10570F5C03ED1059F
:101F300008F0CBC0C83AD105B8F4C53AD10550F085
:101F40002C2F255AC22FD0E0C859DE4F888190E04F
:101F50009064BBC0C130D10509F4B7C008F4B3C068
:101F6000249708F4B0C0B1C0CF3BD10508F0ABC096
:101F70002C2F285AC22FD0E0CC0FDD1FC559DE4FC1
:101F8000888199819464A1C0C11540E2D40760F4AE
:101F9000C11551E0D50708F098C0CD3ED10508F431
:101FA00092C0CE01906591C0C11580E4D80708F4B5
:101FB0008AC0CE019F70906A88C0C11595E5D90787
:101FC00008F040C0C11524E5D20728F09C2F8827CF
:101FD000846F906A7AC0C11543E5D407A8F09E01CA
:101FE0002370332781E090E002C0880F991F2A9563
:101FF000E2F72C2F2695269540E2249F900111248C
:10200000822B932B9A6861C0C11552E5D50728F43D
:102010009C2F8827816F906A58C09E0123703327B8
:1020200081E090E002C0880F991F2A95E2F72C2FDB
:102030002695269550E2259F90011124822B932B03
:102040009C6843C0C11589E5D807B0F4C11598E56F
:10205000D90728F09C2F8827806F906A36C0C11559
:1020600026E5D20780F58C2F0E94C4098F7190E07D
:10207000982F8827906229C0C1154AE5D40790F4AB
:102080008C2F8F700E94C4099E0194E0369527958D
:102090009A95E1F72F7030E0322F22273069A9019D
:1020A000482B0FC0CE0190568115904260F48D2FC1
:1020B0008F710E94C4099E01332730628F71A9017C
:1020C000582BCA0102C080E090E0DF91CF910895C3
:1020D0000E949A1C2FEF84E39CE0215080409040A6
:1020E000E1F700C0000081E08093E00080E280938F
:1020F000D8001092C9008FE19EE40197F1F700C06B
:10210000000087E090EBDC018093830290938402CF
:10211000A0938502B09386029CE088E10FB6F89404
:10212000A895809360000FBE90936000FFCF8B3125
:1021300009F468C058F58B3009F484C078F486300F
:1021400009F446C020F4853009F44CC07FC08730C4
:1021500009F44AC0883009F475C078C0803109F4A8
:1021600064C068F48E3009F071C08091EF0182FB89
:10217000222720F991E0922790FB82F94CC086310A
:1021800009F460C0893109F45DC060C08A32E9F0A9
:1021900060F4873209F458C028F48E3108F456C030
:1021A0008D514EC08932F1F051C0833450F48A33DE
:1021B00008F045C0853309F447C0883309F442C0AC
:1021C00045C0833409F440C041C00E9408243AC08D
:1021D0008091EF01817F8E7F8093EF0181E080937A
:1021E000F90108950E9468108091EF01982F909551
:1021F000917090FB80F98093EF01911123C0897F4A
:10220000877F10C08091EF0181FB222720F991E0A8
:10221000922790FB81F98093EF01992399F08091A7
:10222000EF0181608093EF010DC08091EF0183FB8E
:10223000222720F991E0922790FB83F9ECCF895374
:102240000E94490A81E0089580E0FACF80E0089575
:102250001F920F920FB60F9211248F939F9380912C
:10226000A5018F5F8093A50181111BC08091A20100
:10227000882329F08E9880919D018093A2018091FE
:10228000A301882329F08D9880919C018093A3015C
:102290008091A401882329F08C9880919E018093DD
:1022A000A4019091A2018091A501981305C08E9A76
:1022B00080919D018093A2019091A3018091A5013D
:1022C000981305C08D9A80919C018093A3019091F1
:1022D000A4018091A501981305C08C9A80919E015C
:1022E0008093A4019F918F910F900FBE0F901F902C
:1022F00018958091DB0180FD09C010929D0110921C
:102300009C0110929E018E9A8D9A8C9A0895089540
:10231000CF93DF93EC012CE931E04091DE01609135
:10232000DD018C810E940B0B0E9479119A818C81B6
:1023300090FF02C08F5F01C081508C83DF91CF91ED
:102340000895CF93FC01C281848191E09483E1EAF6
:10235000F3E03491E0E2F4E02491C33040F4909152
:10236000DC019093AC019091DD019093AD0181115E
:1023700005C01092AF011092AE0160C08091AF0114
:10238000882321F181508093AF014FEF849FC001DA
:1023900011246091B00170E00E945527FB01FF27D6
:1023A000EF55FC4F8491E82FE31B4FEFE49FC001F2
:1023B0001124231B622F70E00E9455278091DE01BB
:1023C000689FB00111247093AE0138C00E947E2630
:1023D0002091DE012695215830E0A901440F551FB8
:1023E000322F2227240F351F232F332782179307DD
:1023F0002CF5C330A0F00E947E266FEF70E00E94A3
:1024000069278093AC010E947E262091DD012695EC
:10241000622F70E00E946927280F2093AD0110926F
:10242000AE018091DE01843120F0893C18F088EC07
:1024300001C084E18093B0018093AF012CE931E0C9
:102440004091AE016091AD018091AC010E940B0BF7
:10245000CF910C947911CF93DF93EC018C812CE90F
:1024600031E0882311F040E002C04091DE0160912C
:10247000DD018091DC010E940B0B0E9479118C819F
:1024800090E00196817099278C83DF91CF91089518
:102490008F929F92AF92BF92CF92DF92EF92FF9274
:1024A0000F931F93CF93DF93EC014C81042F10E027
:1024B0009801D8010E942A279B01AC010E94F526B1
:1024C0006B017C01E0E2F0E0E01BF10BA5E5B0E080
:1024D0009B01AC010E94F5264B015C019F01DF01CD
:1024E0000E9483279B01AC010E9400279B01AC0145
:1024F0002C0D3D1D4E1D5F1DC501B4010E94082716
:10250000922F2A3228F483E0289FA00111240DC0C5
:1025100045E550E0491B51099A01220F331F420F34
:10252000531F57FF02C04F5F5F4F5595479540952A
:102530002CE931E06091DD0185E5891B0E940B0BE0
:102540000E9479118C81811102C091E003C0803218
:1025500019F49FEF9093110190911101890F8C83D1
:10256000DF91CF911F910F91FF90EF90DF90CF906F
:10257000BF90AF909F908F900895CF9310929D0140
:1025800010929C0110929E01C091AA011C1674F039
:102590008091100187FD0AC02CE931E04091DE01F5
:1025A0006091DD018091DC010E940B0B0E9479118A
:1025B00080910F01C80FC093AA0190911001980F4C
:1025C00090931001191614F4C7FD03C081958093F0
:1025D0000F01CF910895FF920F931F93CF93DF9335
:1025E000FC01828180FF02C0DFEF01C0D1E01092C8
:1025F0009D0110929C0110929E0104E010E0F12CCC
:10260000C091A9018C2F8F0D823024F487FD8F5F3C
:10261000811113C08091DE01809FA001819F500D28
:10262000112455954795559547952CE931E06091D2
:10263000DD018091DC010E940B0BFD0E01501109A0
:10264000F9F60E947911D13011F4C11103C0109232
:10265000A90103C0C150C093A901DF91CF911F917F
:102660000F91FF900895CF93DF93EC01EBEDF1E034
:10267000438162818C810E94A10B8C818F5F8C834E
:10268000DF91CF910895CF93DF93EC01EC81F0E0DF
:10269000EF55FC4F4491EBEDF1E0628181810E94A6
:1026A000A10B8C818F5F8C83DF91CF9108951F9355
:1026B000CF93DF93CDB7DEB767970FB6F894DEBF41
:1026C0000FBECDBF342F4B8B252F5C8B6D8B7E8B3C
:1026D0008F8B4E895F89611110927C0286E0FE012A
:1026E0003D96DF01982F1D929A95E9F73D872E8739
:1026F0006F87598B488BDE01179601900D928A9552
:10270000E1F7CE0107960E94CE1A81113EC086E005
:10271000FE013796DE01119601900D928A95E1F740
:10272000FF81E8856A857B856115710531F0EF3F92
:1027300031F481E0FF3F19F403C081E001C080E083
:1027400080FD23C02091200230E0C90101968770EE
:1027500099274091510250E08417950779F1F98348
:10276000EA837D836C8396E0929FD001939FB00DA6
:102770001124AF5DBD4FFE01319601900D929A95E7
:10278000E1F7809320020E94BC2516E0809151025F
:10279000909120028917F9F0189FC00111248F5DD4
:1027A0009D4F0E94CE1A8823B1F08091510290E093
:1027B00001968770992780935102E8CF0E949A1C56
:1027C0001092200210925102EAE1F2E086E0DF016D
:1027D0001D928A95E9F767960FB6F894DEBF0FBE93
:1027E000CDBFDF91CF911F9108952091B501309118
:1027F000B6012817390771F09093B6018093B5019F
:10280000E091C601F091C701309721F00084F18575
:10281000E02D099408952091B3013091B401281757
:10282000390771F09093B4018093B301E091C60130
:10283000F091C701309721F00680F781E02D0994CF
:102840000895E091C601F091C701309721F0019001
:10285000F081E02D099480E00895EF92FF920F93AC
:10286000CF93DF93C42FD22FFC0182818823D1F034
:102870004093A0010E9490239093B2018093B101F4
:1028800080E28C0F883008F06DC0C77081E001C015
:10289000880FCA95EAF7DF91CF910F91FF90EF90E3
:1028A0000C94B01C8091A00148134BC08091B101E1
:1028B0009091B2010E948123883C910508F041C0AB
:1028C000CD17C9F080E28C0F883040F4C77081E0EA
:1028D00001C0880FCA95EAF70E94A51C80E28D0FFF
:1028E000883048F481E09D2F977001C0880F9A9539
:1028F000EAF70E94B01C093319F0E12CF12C03C057
:1029000080E5E82EF12C802F0E94211DE114F104B6
:1029100051F08FE99FE00197F1F700C0000091E0CE
:10292000E91AF108F3CF802F0E94BA1C80E28D0FC4
:102930008830C0F4D77081E001C0880FDA95EAF7DB
:102940000AC080E28C0F883068F4C77081E001C053
:10295000880FCA95EAF7DF91CF910F91FF90EF9022
:102960000C94A51CDF91CF910F91FF90EF900895EB
:10297000CF92DF92EF92FF928430A0F4811113C0C6
:102980002091880030918900232B51F090916F00A5
:102990009D7F90936F0090916F009E7F90936F004A
:1029A0008F9A11C083E02091880030918900232BF9
:1029B00051F490916F00926090936F0090916F002E
:1029C000916090936F00282F30E0AFEFBFEF0E942F
:1029D0002A2723E030E040E050E00E940827B42F8F
:1029E000A32F922F8827492F5A2F6B2F7727CA01A1
:1029F0004C3724E1520728F469E070E00E94552723
:102A000029C0DB01CA018A50974DAF4FBF4F6627DF
:102A1000782F892F9A2F25EF38E241E050E00E946D
:102A2000082769017A01CA01B9010E9439279B016F
:102A3000AC01C701B6010E943927BB27A92F982FE7
:102A4000872F009721E0A207B10511F0BC0102C059
:102A50006FEF7FEF7093890060938800FF90EF9095
:102A6000DF90CF9008951F920F920FB60F9211240E
:102A70002F938F939F93809188009091890081304C
:102A8000914008F08F989F918F912F910F900FBEDA
:102A90000F901F9018951F920F920FB60F9211244E
:102AA0008F9A0F900FBE0F901F9018950E94FD23D4
:102AB000811102C00E94082486E090E00E948E26C8
:102AC00080939F01282F26952695269530E0243067
:102AD000310524F08770886180939F0180919F0168
:102AE00080FF04C086958695869501C080E00C9491
:102AF000B8149091DB0190FF04C09695981740F0B0
:102B000003C0811105C090E0961710F40C94F20AEE
:102B100061E00C94A70A882311F0FA0101C0FB01BF
:102B200009949091DB0190FF08C080939D01609310
:102B30009C0140939E010C94791108950F931F936B
:102B4000CF93DF9300D01F92CDB7DEB78C01809179
:102B5000AB0181110AC09E012F5F3F4F4FEF6FEF16
:102B60000E940B0B8A818093AB01F8018481813034
:102B700051F028F0823061F44091AB010AC080919D
:102B8000AB0140E007C06091AB0140E080E003C0D2
:102B900040E080E060E00E949115F801848190E0BF
:102BA000019663E070E00E94692784830F900F9084
:102BB0000F90DF91CF911F910F910895EF92FF92A7
:102BC0000F931F93CF93DF9300D01F92CDB7DEB743
:102BD000082FF62E142FE22E9091DB0190FF46C0B5
:102BE000E92FE695AE2FB0E0AD5DBE4F8C9180939E
:102BF000E0019E7F923061F49E012F5F3F4F802F56
:102C00000E940B0B4B8169818A810E9491151CC027
:102C1000823019F41091DE0117C0863019F400914A
:102C2000DC0112C08930D9F3893171F4E951E6959C
:102C3000F0E0E456FC4F859194912CE931E0802F2F
:102C40000E940B0B0E9479110093DC01F092DD01D0
:102C50001093DE01EE2051F06091DB017091DC01F8
:102C60008091DD019091DE010E94730A0F900F9018
:102C70000F90DF91CF911F910F91FF90EF900895EA
:102C8000BC0184E00C942823BC0183E00C9428232D
:102C90002091E4003091E50095E64091EC00842F0E
:102CA000817040FF23C08091E80080FD1DC08091AD
:102CB0000802882399F0853099F08091EB0085FD1A
:102CC00011C04091E4005091E5002417350729F325
:102CD000915011F09A01E1CF84E0089582E00895C7
:102CE00083E0089581E0089580E008954091E80030
:102CF00042FFDDCF089580910A0287FF11C08091C5
:102D0000E80082FD05C0809108028111F8CF11C052
:102D10008091E8008B770BC080910802882349F0EE
:102D20008091E80080FFF8CF8091E8008E77809353
:102D3000E8000895982F973068F59093E900981768
:102D400039F07091EC002091ED005091F00003C03B
:102D5000242F762F50E021FD02C09F5FECCF3091F1
:102D6000EB003E7F3093EB003091ED003D7F3093E0
:102D7000ED003091EB0031603093EB007093EC008C
:102D80002093ED005093F0002091EE0027FDE5CF59
:102D900080E008958F708093E90081E0089520918C
:102DA0001002309111022617370748F0611571059E
:102DB00039F42091E8002E772093E80001C0B90192
:102DC000FC0120E06115710579F1809108028823EA
:102DD000F1F18530F1F18091E80083FD3CC08091F4
:102DE000E80082FD2EC08091E80080FFEBCF2091AB
:102DF000F3008091F20090E0922B6115710551F083
:102E00008830910538F421912093F10061507109C7
:102E10000196F3CF21E0089709F020E08091E800C7
:102E20008E778093E800CECF2111CFCF0AC080915A
:102E30000802882361F0853061F08091E80083FD0D
:102E40000AC08091E80082FFF2CF80E0089582E01E
:102E5000089583E0089581E00895CF93DF93CDB77F
:102E6000DEB760970FB6F894DEBF0FBECDBF84B754
:102E7000877F84BF0FB6F894A89580916000886121
:102E800080936000109260000FBE90E080E80FB663
:102E9000F89480936100909361000FBE85B78068BD
:102EA00085BF85B7806885BF8BED92E290939B01CB
:102EB00080939A010E9483210E94A2218091E200C6
:102EC00084608093E2007894809108028823A1F0C6
:102ED0001091E9001F709091EC00892F817090FD96
:102EE00080E8182B1092E9008091E80083FD0E9491
:102EF000761E1F701093E90082E084BD93E095BDBB
:102F00009AEF97BD80936E000EE411E0F801819175
:102F10008F010E94FF0DF1E006351F07B9F706E5A6
:102F200011E08EE5E82E81E0F82EF80181918F0105
:102F30000E94FF0DE016F106C1F7E7EBF1E08FEB21
:102F400091E0ADECB1E011921D928E179F07D9F779
:102F50000E94FD23811102C00E940824879A8F9A43
:102F600082E08093800089E1809381008FEF9FEF62
:102F700090938700809386000E94561580B38067E7
:102F800080BB81B3806781BB809191008860809312
:102F90009100809191008160809391008FB7F894A7
:102FA00093E09093990090ED909398008FBF80915B
:102FB00071008260809371000E94FD23811102C024
:102FC0000E94082482E090E00E948E268093EF0108
:102FD0000E94EC239093C4018093C30183E090E0AE
:102FE0000E948E26682F70E080E090E00E94B2255B
:102FF0000E9456158091C501811133C00E94FD23A6
:10300000811104C00E9408240E94FC0A88E090E01C
:103010000E9496266093DB017093DC018093DD01B2
:103020009093DE016E7F71F40E94FC0A88E090E0CC
:103030000E9496266093DB017093DC018093DD0192
:103040009093DE010E94600A1092E1018091DB0101
:1030500080FF04C060E086950E94A70A81E080930B
:10306000C50184E191E09093C7018093C601B8E166
:10307000EB2EF12C10E4C12E00E1B02EA2E1DA2EED
:1030800080910802853009F044C0809108028530A3
:1030900009F039C080910802843021F180E00E945B
:1030A000B8141092C8010FB6F894A895E092600089
:1030B0000FBEC092600083B7817F846083BF83B7F7
:1030C000816083BF7894889583B78E7F83BF0FB666
:1030D000F894A895809160008861809360001092B8
:1030E00060000FBE80910702882309F4CECF0E94B2
:1030F000160EEDECF1E08191811103C221E0E53D76
:10310000F207C9F7C2CF0E949A1C0E9456150E946E
:1031100021140E94160E882359F08FB7F89440911D
:10312000C9015091CA016091CB017091CC018FBF50
:10313000E0EFF1E0ADECB1E000E010E0302F2D91D8
:103140009191922721F180E099249394492F49216C
:10315000D1F08F833887292181E009F480E08987C5
:103160000E9490238160782F9B878A874F815885A2
:1031700069858B850E945713F801E051FE4F8081CD
:103180009826908219C08F5F990C8830F9F60F5FEE
:103190001F4F0830110591F68FEF8C878D871E86A3
:1031A0000E9490238160782F988B8F874C855D8556
:1031B0006E8588890E9457138091E101882309F464
:1031C000A5C08091E001E091DB01E695E81BE0936A
:1031D000D701823059F4F0E0EE54FB4FE4910E2F0A
:1031E00010E0F3E48F2EF3E19F2E6BC0863059F48C
:1031F000F0E0E155FB4FE4910E2F10E0E3E38E2E5B
:10320000E3E19E2E5EC0893061F4E695F0E0E4557E
:10321000FB4FE4910E2F10E078E8872E71E1972E96
:1032200050C08F3061F4E695F0E0E755FB4FE49134
:103230000E2F10E06BEE862E62E1962E42C0853195
:1032400059F4F0E0EA55FB4FE4910E2F10E05DEBEE
:10325000852E52E1952E35C08831F9F0833249F43C
:10326000E4EAF4E0059114914EE9842E45E1942EB0
:1032700028C08432C9F08532F1F48E2F63E00E94B9
:103280004927E92FF0E0EF55FB4FE4910E2F10E0B6
:1032900031EA832E31E1932E14C008E210E028E4D5
:1032A000822E22E1922E0DC004EF11E09BE2892EC6
:1032B00092E1992E06C000ED17E087E8882E81E1A3
:1032C000982E8091D801882361F01092D8010E9435
:1032D00090239093D6018093D5011092DA01109239
:1032E000D9010E949023E091D501F091D6018E1B67
:1032F0009F0B8F3F9F4750F40E0F1F1F1093D60157
:103300000093D50185ED91E0F401099586E0E8EEA2
:10331000F1E0DE01119601900D928A95E1F780901F
:10332000EA019090EB010091EC011091ED011092F7
:10333000EA011092EB011092EC011092ED01811064
:1033400003C0992009F45DC08091E6019091E701E6
:103350000E948123AC019091E501992339F02091DD
:10336000130130E02417350758F04BC020911201AB
:10337000FAE02F9F900111242417350718F041C05F
:103380009F3F19F09F5F9093E501882061F00E94B4
:10339000950C181414F09FEF01C091E0899F802DC7
:1033A00011248093EA01992061F00E94950C191470
:1033B00014F09FEF01C091E0899F802D112480932C
:1033C000EB013091EA013323E1F02091EB0122235C
:1033D000C1F045EB3403C0011124992319F09093F7
:1033E000EA0103C081E08093EA0135EB2303C001C9
:1033F0001124992319F09093EB0103C081E080938D
:10340000EB01011103C0112309F451C08091E301C4
:103410009091E4010E9481239C019091E201992303
:1034200009F48EC02536310508F441C09F3F19F0DC
:103430009F5F9093E201002361F00E945C0C1016E4
:1034400014F09FEF01C091E0899F802D112480939B
:10345000EC01112361F00E945C0C111614F09FEF37
:1034600001C091E0899F802D11248093ED0130915E
:10347000EC013323E1F02091ED012223C1F045EB73
:103480003403C0011124992319F09093EC0103C077
:1034900081E08093EC0135EB2303C00111249923D3
:1034A00019F09093ED0103C081E08093ED018091CC
:1034B000EA0181110BC08091EB01811107C080915D
:1034C000EC01811103C08091ED0181110E94BB0BC1
:1034D0008B829C820D831E8386E0FE013196A8EECE
:1034E000B1E001900D928A95E1F70E94211490912C
:1034F000EE01891709F4C4CD0E9421148093EE01D6
:10350000BDCDB9BCD9BC09B400FEFDCF8091D800B7
:103510008F7D8093D8008091E00082608093E000EE
:103520008091E00081FDFCCF0E949A1C3FEF43ECAC
:1035300089E0315040408040E1F700C00000A5CD57
:103540002D32314008F074CFB2CF0E94E724292FEA
:103550002F70E92FE295EF704E2F50E0FA0132976D
:10356000EE30F105B8F4EA58FF4F0C947D27803F08
:1035700099F018F4883E70F40FC0843F59F40CC0E1
:10358000883E50F0813F31F407C0822F86958695A2
:103590008695089580E0089581E008959F92AF9206
:1035A000BF92CF92DF92EF92FF920F931F93CF9330
:1035B000DF93CDB7DEB761970FB6F894DEBF0FBECD
:1035C000CDBF8C0185E0F801DE011D9601900D92C2
:1035D0008A95E1F7F80190818181E28030911A02A9
:1035E00060911B0240911D0250911E024115510530
:1035F00031F06F3F31F421E03F3F19F403C021E087
:1036000001C020E0F22FF1709F2E20FD23C1F801B0
:10361000C380D4802AE1A22E22E0B22EF0901C02B8
:10362000F601E41BF50BFF2009F4CEC020911F0228
:10363000E83CF10508F099C0422F407F09F051C0E5
:10364000681311C039130FC0FE2CE1100CC02F708D
:10365000206120931F02C5010E94430380911F0235
:10366000F801858337C1CD2831F08F3F31F421E057
:103670009F3F19F403C021E001C020E020FD03C0FA
:1036800021E02E2502C020E030E0F22FF170FF2E65
:1036900020FF1DC0209151024091200256E02417C6
:1036A00009F4F6C030E0529FF001539FF00D112451
:1036B000EF5DFD4F6181861306C06081961303C0E4
:1036C0006281E61204C02F5F3F4F2770E8CFFE2CC7
:1036D000EE2009F4FFC080911F02816080931F02D9
:1036E00050C0681307C0391305C0E11003C0F801CA
:1036F00025838DC09D878E878D859E850E94A51A06
:10370000882369F1EE2059F120911F02822F8295C2
:103710008F7090E0029774F080911A0290911B02D2
:1037200098878F831986DB86CA862C87CE010796F9
:103730000E94430386E0F801AAE1B2E001900D92F5
:103740008A95E1F70E94C6250DC06817E1F09D87B4
:103750008E878D859E850E94A51A81111EC0C80185
:103760000E944303FF24F394B5C0422F407F69F7C2
:103770008AE192E00E94430386E0F50111928A9566
:10378000E9F7F12CA7C03913E2CFE110E0CFF8013F
:103790002583C8010E94430357C0EE2001F3209106
:1037A0001F02822F82958F7090E002971CF2809109
:1037B0001A0290911B029A8389831B82DD82CC823C
:1037C0002E83CE010196B4CFE83CF105E8F5FE2C3E
:1037D000EE2029F2681327C0391325C020911F025B
:1037E00020FD18C0822F82958F70482F50E0411520
:1037F000510581F0F80125834F30510541F08F5F6D
:10380000982F9295907F822F8F70892B8583C80186
:103810000E94430386E0F801AAE1B2E001900D9214
:103820008A95E1F757C09D878E878D859E850E947A
:10383000A51A81117FCF80911F02816080931F02A2
:10384000C8010E94430346C086E0F50111928A95A3
:10385000E9F740C0EE2009F482CF9D878E878D85E1
:103860009E850E94A51AF82E882309F478CF86E059
:10387000F801AAE1B2E001900D928A95E1F78091FA
:103880001A0290911B020E94E7240E94C62522C0C2
:103890009D878E878D859E850E94E724292F2295FE
:1038A0002F70223028F49F7039F0811105C00BC0B1
:1038B000243028F49F7049F4805E883020F0C801DD
:1038C0000E9443039F2CF92C05C0F8019581907F3D
:1038D00099F7F9CF8F2D61960FB6F894DEBF0FBE22
:1038E000CDBFDF91CF911F910F91FF90EF90DF90AF
:1038F000CF90BF90AF909F90089580E090E00E949D
:103900000B1480E090E00E94F51310927C0210925C
:103910007B020E947824E8EEF1E086E0DF011D9250
:103920008A95E9F71092E5011092E2011092FA01EE
:103930000C94BB0B10927D0286E0E4E1F2E0DF0123
:103940001D928A95E9F70C947D1C882341F080959F
:1039500090917D02892380937D020C9478240895B0
:10396000882339F090917D02892B80937D020C94FD
:1039700078240895882309F463C0823869F40E948A
:10398000211481FF5DC069E382E192E00E94D223AD
:103990000E94782469E30EC0833891F40E942114B8
:1039A00080FF4EC063E582E192E00E94D2230E9434
:1039B000782463E582E192E00E94C5230C94782488
:1039C000843869F40E94211482FF3AC067E482E1DE
:1039D00092E00E94D2230E94782467E4EBCF9CEF10
:1039E000980F913A10F4682FE5CF90E2980F983035
:1039F00088F4877021E030E0A90102C0440F551F10
:103A00008A95E2F7CA01809590917D02892380937F
:103A10007D02D4CF9BE5980F933020F480E090E0B6
:103A20000C940B1498E5980F973120F480E090E007
:103A30000C94F5138D3E20F00E94E50B0C94BB0B0B
:103A40000895CF93882309F423C1C82F8238B1F495
:103A50000E94211481FD1CC169E382E192E00E9471
:103A6000D2230E9478242FEF81EE94E021508040F1
:103A70009040E1F700C0000069E317C08338E1F42B
:103A80000E94211480FD04C163E582E192E00E945E
:103A9000D2230E9478242FEF81EE94E021508040C1
:103AA0009040E1F700C0000063E582E192E00E94EF
:103AB000C523CF910C9478248438B1F40E9421144A
:103AC00082FDE6C067E482E192E00E94D2230E9478
:103AD00078242FEF81EE94E0215080409040E1F770
:103AE00000C0000067E4E1CF8CEF8C0F813A08F052
:103AF00082C08091F901813069F018F0823021F1A3
:103B000072C080917D02823209F0AAC08C2F0E947F
:103B100097106EC080917D028232C1F3C43189F06A
:103B200050F4CB3009F49AC0C03109F05FC082E094
:103B30008093F90193C0C93221F0C83309F48EC0D3
:103B400055C01092F90152C0C932A9F128F5C4310B
:103B500091F1B0F4C73009F09BC08EE1809312015F
:103B600082E3809313018AE08093210184E18093B2
:103B7000200188E080931F0188E280931E0188C0A5
:103B8000CE51C63008F084C0EC2FF0E0E25AFE4F70
:103B900080818093F8017CC0CE34F9F028F4CB34D6
:103BA00009F076C06AE014C0C13581F0C23509F071
:103BB0006FC061E00DC08091F801882319F0109268
:103BC000F80166C081E08093F90162C061E006C03F
:103BD0008091F801CF910C94890D6AE08091F801F1
:103BE000CF910C94390D1092F9013AC080E08170A8
:103BF00081114EC035C080E28C0F883068F4C770E8
:103C000081E090E001C0880FCA95EAF790917D02AB
:103C1000892B80937D024DCFEBE5EC0FE33040F430
:103C2000F0E0E859FE4F808190E0CF910C940B14A6
:103C3000E8E5EC0FE73150F4F0E0EE0FFF1FE55937
:103C4000FE4F80819181CF910C94F513CD3E00F110
:103C50008C2F0E94DE0CCF910C94BB0B81E0C7CF60
:103C6000E4E1F2E08AE192E02191C21749F08E1777
:103C70009F07D1F76C2F82E192E00E94D22319CFE7
:103C80006C2F82E192E00E94C5230E947824F2CF3B
:103C9000CF910895EF92FF920F931F93CF93DF93ED
:103CA0007C018B010E944816811119C0E7010115A2
:103CB0001105A1F08091E80085FD0AC08091E8001F
:103CC0008E778093E8000E944816882381F307C00E
:103CD00089918093F10001501109E9CF80E0DF91D3
:103CE000CF911F910F91FF90EF9008951F93CF9365
:103CF000DF93CDB7DEB7AA970FB6F894DEBF0FBE3D
:103D0000CDBFEAE0F2E08091F100819322E0E23160
:103D1000F207C9F780910B02833009F460C030F4D8
:103D2000813071F0823009F49AC0B1C08A3009F450
:103D300086C08B3009F46BC0893009F0A8C020C060
:103D400080910A02813A09F0A2C08091E800877F41
:103D50008093E80080910E0290910F02892B21F44C
:103D600068E08EEF91E003C060E080E090E070E0FA
:103D70000E94CF168091E8008B778093E80087C07F
:103D800080910A02813209F082C080910E029091E6
:103D90000F02029708F07BC08091E800877F809334
:103DA000E8008091E80082FD05C080910802811141
:103DB000F8CF6DC02091F3008091F20090E0922B3B
:103DC000029729F48091F1008B7F813021F480915A
:103DD000F1008093FD018091E8008B7754C08091C1
:103DE0000A02813A09F053C080910E0290910F02AD
:103DF000892B09F04CC08091E800877F8093E80010
:103E00008091E80080FFFCCF8091220137C0809133
:103E10000A028132E1F580910E0290910F02892B06
:103E2000B1F58091E800877F8093E8000E947B16BF
:103E300080910C02809322010E949A1C28C08091DC
:103E40000A02813221F58091E800877F8093E800A3
:103E50000E947B1680910D028093FC0118C0809116
:103E60000A02813AA1F48091E800877F8093E800FC
:103E70008091E80080FFFCCF8091FC018093F100ED
:103E80008091E8008E778093E8000E947B168091F5
:103E9000E80083FFCCC180910A0290910B02492F68
:103EA00050E04A30510508F0C2C1FA01EC57FF4F0B
:103EB0000C947D27803821F0823809F0B8C108C001
:103EC0008091060290910702992389F082600FC0C9
:103ED00080910E028F70873008F0A9C18093E900AD
:103EE0008091EB0085FB882780F91092E900909182
:103EF000E800977F9093E8008093F1001092F10022
:103F000065C1282F2D7F09F092C1882319F08230D6
:103F100061F08DC180910C02813009F088C193302D
:103F200009F080E0809307022EC080910C0281117D
:103F30002AC080910E028F702FEF280F263008F0D4
:103F400076C18093E9002091EB0020FF1CC09330E4
:103F500021F48091EB00806214C09091EB0090619D
:103F60009093EB0021E030E0A90102C0440F551FFF
:103F70008A95E2F74093EA001092EA008091EB0004
:103F800088608093EB001092E9008091E800877FC1
:103F900020C181114CC110910C021F778091E30068
:103FA0008078812B8093E3008091E800877F809365
:103FB000E8000E947B168091E80080FFFCCF809192
:103FC000E30080688093E300111102C082E001C029
:103FD00083E0809308022BC18058823008F027C10B
:103FE00080910C0290910D028C3D53E0950779F57C
:103FF00083E08A838AE289834FB7F894DE011396BF
:1040000020E03EE051E2E32FF0E050935700E491CE
:1040100020FF03C0E295EF703F5FEF708E2F90E0BE
:10402000EA3010F0C79601C0C0968D939D932F5F24
:10403000243149F74FBF8091E800877F8093E800E3
:104040006AE270E0CE0101960E94CF16AEC04091A8
:104050000E0250910F02292F332723303105A9F08A
:1040600068F42130310509F4F1C02230310509F03E
:10407000DEC08BE390E0E1E7F5E044C0213231059A
:1040800021F12232310571F1D2C099278130910599
:10409000A1F058F0029709F0CAC0EEEBF5E0E49108
:1040A0008E2F90E0EEEBF5E02AC0E0EFF5E0E49132
:1040B0008E2F90E0E0EFF5E022C0E6EDF5E0E49130
:1040C0008E2F90E0E6EDF5E01AC04115510509F498
:1040D000C2C04130510509F0AAC089E090E0ECE986
:1040E000F5E010C04115510509F4BAC04130510541
:1040F00009F09DC08BE790E0E6EBF4E003C0009789
:1041000009F495C02091E800277F2093E8002091D2
:104110001002309111028217930708F49C0140E0CD
:104120002115310589F180910802882309F43DC0E9
:104130008530D9F18091E80083FD37C08091E80097
:1041400082FD2FC08091E80080FFEACF4091F3000C
:104150008091F20090E0942B2115310559F08830C0
:10416000910540F444914093F1003196215031097A
:104170000196F2CF41E0089709F040E08091E80015
:104180008E778093E800CCCF4111CDCF0AC08091CB
:104190000802882351F0853041F08091E80083FDCA
:1041A00004C08091E80082FFF2CF8091E8008B7715
:1041B0008093E8003CC08038D1F58091E800877F8B
:1041C0008093E800809109028093F1008091E800DB
:1041D0008E778093E8000E947B1629C0811127C04A
:1041E00080910C0290910D029927029704F580911D
:1041F000E800877F8093E80010910C021093090279
:104200000E947B16111106C08091E30087FD02C059
:1042100081E001C084E08093080242E061EC81E02B
:104220000E949A1642E261EC82E00E949A16809106
:10423000E80083FF1AC08091E800877F8093E80040
:104240008091EB0080628093EB000FC082E190E0F0
:10425000ECEAF5E057CF89E090E0E3E8F5E052CFF3
:1042600080E490E0E1E3F5E04DCFAA960FB6F89434
:10427000DEBF0FBECDBFDF91CF911F9108951F927A
:104280000F920FB60F9211242F933F934F935F938A
:104290006F937F938F939F93AF93BF93CF93DF934E
:1042A000EF93FF93C091E900CF708091EC00D82F7D
:1042B000D17080FDD0E81092E9008091F000877FF6
:1042C0008093F00078940E94761E1092E90080910D
:1042D000F00088608093F000CD2BCF70C093E90090
:1042E000FF91EF91DF91CF91BF91AF919F918F910E
:1042F0007F916F915F914F913F912F910F900FBEE2
:104300000F901F901895E8EDF0E080818E7F8083FC
:104310001092E2001092DA001092E100A0EEB0E0FC
:104320008C9181608C9380818F77808319BCA7EDFD
:10433000B0E08C918E7F8C9380818F7E80831092F1
:10434000FB010895CF92DF92EF92FF920F931F939C
:10435000CF93DF93C8EDD0E088818F7E8883E7ED2F
:10436000F0E080818160808384E082BF81E080937F
:10437000FB0188818E7F888302EE10E0F8011082B5
:104380001092DA0081EEC82ED12CF60110828881BD
:104390008F77888388818068888388818F7D8883F0
:1043A00019BC109208021092090210920702109292
:1043B000060290EEE92EF12CF70180818B7F80833D
:1043C00088818160888342E060E080E00E949A16E4
:1043D000F60180818E7F8083F801808181608083F7
:1043E000808188608083F70180818E7F80838881CF
:1043F00080618883DF91CF911F910F91FF90EF90A3
:10440000DF90CF9008951F920F920FB60F92112454
:104410002F933F934F935F936F937F938F939F93CC
:10442000AF93BF93EF93FF938091E10082FF09C0A8
:104430008091E20082FF05C08091E1008B7F809334
:10444000E1008091DA0080FF2AC08091D80080FFCF
:1044500026C08091DA008E7F8093DA008091D900A7
:1044600080FF18C080E189BD82E189BD09B400FEEA
:10447000FDCF81E0809308028091FB0181110FC084
:104480000E9483210E94A2218091E2008460809397
:10449000E20005C019BC109208021092FB01809145
:1044A000E10080FF17C08091E20080FF13C080917F
:1044B000E2008E7F8093E2008091E2008061809331
:1044C000E2008091D80080628093D80019BC85E01A
:1044D000809308028091E10084FF2EC08091E20069
:1044E00084FF2AC080E189BD82E189BD09B400FE54
:1044F000FDCF8091D8008F7D8093D8008091E1001E
:104500008F7E8093E1008091E2008F7E8093E200B5
:104510008091E20081608093E2008091090288230B
:1045200011F084E007C08091E30087FD02C081E0C4
:1045300001C083E0809308028091E10083FF27C0DF
:104540008091E20083FF23C08091E100877F809308
:10455000E10082E080930802109209028091E1005C
:104560008E7F8093E1008091E2008E7F8093E20055
:104570008091E20080618093E20042E060E080E0B0
:104580000E949A168091F00088608093F000FF915D
:10459000EF91BF91AF919F918F917F916F915F91BB
:1045A0004F913F912F910F900FBE0F901F90189534
:1045B0008091FD01089580E0089522E02093E900B4
:1045C0002FEF3091E800215035FD06C035ED3A95CA
:1045D000F1F700002111F5CF2091E80025FF0BC075
:1045E00040E050E066E070E00E944A1E8091E800E2
:1045F0008E778093E8000895CF93DF9321E0209396
:10460000E9002FEF3091E800215035FD06C035ED6F
:104610003A95F1F700002111F5CF2091E80025FF30
:1046200014C0EC0140E050E068E070E00E944A1ED7
:104630008091E8008E778093E80088E0FE01AEEF7D
:10464000B1E001900D928A95E1F7DF91CF91089545
:10465000CF93DF9300D01F92CDB7DEB790910802C1
:10466000943019F589837B836A8382E08093E90023
:104670008FEF9091E800815095FD06C095ED9A95D9
:10468000F1F700008111F5CF8091E80085FF0DC0A2
:1046900040E050E063E070E0CE0101960E944A1EC7
:1046A0008091E8008E778093E8000F900F900F9034
:1046B000DF91CF91089578941F920F920FB60F92C9
:1046C00011248F939F93AF93BF938091C9019091D1
:1046D000CA01A091CB01B091CC010196A11DB11DE1
:1046E0008093C9019093CA01A093CB01B093CC01F0
:1046F000BF91AF919F918F910F900FBE0F901F9020
:1047000018959C014FB7F8948091C9019091CA0106
:10471000A091CB01B091CC014FBF821B930B0895A8
:104720002FB7F8948091C9019091CA01A091CB0153
:10473000B091CC012FBF08951F920F920FB60F9228
:1047400011248F939F93AF93BF938091C8018111E0
:1047500013C08091C9019091CA01A091CB01B09181
:10476000CC014196A11DB11D8093C9019093CA014E
:10477000A093CB01B093CC01BF91AF919F918F914A
:104780000F900FBE0F901F9018959C012A5F3F4F0E
:10479000FC014281461301C01282019682179307E1
:1047A000B9F708959C01FC0132969FEF80E041919A
:1047B000461789F09F3F19F4411101C0982F8F5F70
:1047C0008630A9F79F3F39F0F901E90FF11D97FDF8
:1047D000FA95628308950895CF9384E090E00E9453
:1047E0008E26C82F81E290E00E948E262C2F30E08A
:1047F000A901582BCA01CF91089580E090E00E9452
:104800009C2621E08B3E9E4F09F020E0822F0895E8
:104810006BEE7EEF80E090E00E94C02660E082E0D8
:1048200090E00E94A22660E083E090E00E94A22631
:1048300010927F02109280021092810210928202E6
:1048400060E084E090E00E94A22660E081E290E0D7
:104850000E94A22660E085E090E00E94A22660E02F
:1048600086E090E00E94A2266FEF87E090E00E9431
:10487000A22640E050E0BA0188E090E00E94B42611
:1048800060E08DE090E00E94A22640E050E0BA0196
:1048900088E190E00E94B42660E087E190E00E9409
:1048A000A22640E050E0BA018CE190E00E94B426DC
:1048B00060E080E290E00E94A22640E050E0BA0171
:1048C00088E190E00E94B42640E050E0BA018FE019
:1048D00090E00E94B42640E050E0BA0183E190E00D
:1048E0000C94B42680917E02811110927E0208956C
:1048F00090917D0280917C02892B20917B02982FE0
:10490000922B9093120280917E02882389F0892B4A
:1049100080931202E4E1F2E097E080E0915029F008
:1049200021912223D9F38F5FF9CF81110E94722444
:10493000E091C601F091C701309731F00280F38118
:10494000E02D82E192E009940895BF92CF92DF9228
:10495000EF92FF920F931F93CF93DF938C01C09040
:10496000BF01D090C001E090C101F090C2018091E0
:104970007F0290918002A0918102B0918202C82AA8
:10498000D92AEA2AFB2ACFE1D0E0D701C6010C2EB2
:1049900004C0B695A795979587950A94D2F780FDA0
:1049A00004C0219790F7B12C07C0BC2EB8018C2F02
:1049B0000E94BE0E0197A9F38B2DDF91CF911F911D
:1049C0000F91FF90EF90DF90CF90BF900895CF931D
:1049D000DF93EC010E94A524BE010E94BE0EDF9170
:1049E000CF91089528E0929F800D1124682F66953D
:1049F00066956695982F977085E0689FB0011124A1
:104A000040E050E080E0FB01E40FF51FEE5AFD4F5F
:104A1000208130E0092E02C0369527950A94E2F7EE
:104A200021703327042E01C0220F0A94EAF7822B4B
:104A30004F5F5F4F4530510531F7089528E0929F51
:104A4000800D1124E82FE695E695E695877051E0F4
:104A500001C0550F8A95EAF785E0E89FF00111241F
:104A6000EE5AFD4F20E030E070E04081CB01022E95
:104A700002C0969587950A94E2F781708195842704
:104A80008523842781932F5F3F4F2530310569F7B8
:104A900008956093BF017093C0018093C10190930A
:104AA000C2010C947D1C0F931F9341E050E060E025
:104AB00070E004C0440F551F661F771F8A95D2F718
:104AC00040955095609570958091BF019091C0017F
:104AD000A091C101B091C2018A019B010823192351
:104AE0002A233B23C901B8011F910F910C9449253A
:104AF00020917A028095822380937A02982F977072
:104B000079F430E0482F082E000C550B2417350798
:104B100039F08595859585950E94532510927A02E6
:104B200008950F931F9341E050E060E070E004C0EF
:104B3000440F551F661F771F8A95D2F78091BF01DA
:104B40009091C001A091C101B091C2018A019B0165
:104B5000082B192B2A2B3B2BC901B8011F910F9150
:104B60000C94492560937F027093800280938102A8
:104B7000909382020C947D1C8091510290912002AE
:104B8000891719F08F5F8770FBCF08950F931F93DC
:104B9000CF93DF9380911F0282958F7009F05DC0E3
:104BA00080911C02882309F458C080915102109111
:104BB000200260911A0270911B02C0911D02D091D7
:104BC0001E0291E06F3F09F090E0292F06E0811767
:104BD00009F443C0209721F07F3F21F030E003C06B
:104BE00031E001C0322F90E030FD34C0089FF00169
:104BF000099FF00D1124DF01AF5DBD4F11963C916F
:104C00001197371327C03C91361324C012963C915C
:104C1000129731111FC013964D915C9114974C1B44
:104C20005D0B483C5105B0F480911F028F7080618C
:104C300080931F02EA5DFD4F80818F7080618083C9
:104C40008AE192E00E944303DF91CF911F910F917F
:104C50000C94BC2501968770BACFDF91CF911F913C
:104C60000F9108958F929F92AF92BF92CF92DF9251
:104C7000EF92FF92CF93DF93EC01688179818A8173
:104C80009B81611571058105910521F464E279ED3F
:104C90008BE597E02DE133EF41E050E00E94D6260E
:104CA00049015A019B01AC01A7EAB1E40E94F52633
:104CB0006B017C01ACEEB4EFA50194010E940327C7
:104CC000DC01CB018C0D9D1DAE1DBF1DB7FF03C0C8
:104CD0000197A109B04888839983AA83BB839F77F2
:104CE000DF91CF91FF90EF90DF90CF90BF90AF908A
:104CF0009F908F9008950E943226089580E091E061
:104D00000E9432260895A0E0B0E0809300019093C5
:104D10000101A0930201B09303010895F999FECF18
:104D200092BD81BDF89A992780B50895A6E1B0E0BB
:104D300044E050E00C94C826A8E1B0E042E050E026
:104D40000C94C826262FF999FECF92BD81BDF89A02
:104D5000019700B4021639F01FBA20BD0FB6F894BF
:104D6000FA9AF99A0FBE08950396272F0E94A32658
:104D70000E94A226252F0E94A326242F0C94A3264E
:104D80000196272F0E94A3260C94A226DC01CB01BA
:104D9000FC01F999FECF06C0F2BDE1BDF89A31964B
:104DA00000B40D9241505040B8F70895052E97FB7E
:104DB0001EF400940E94ED2657FD07D00E9408279C
:104DC00007FC03D04EF40C94ED2650954095309599
:104DD00021953F4F4F4F5F4F089590958095709567
:104DE00061957F4F8F4F9F4F08950E942A27A59F5F
:104DF000900DB49F900DA49F800D911D11240895D6
:104E0000B7FF0C94F5260E94F526821B930B08959C
:104E1000A1E21A2EAA1BBB1BFD010DC0AA1FBB1FBE
:104E2000EE1FFF1FA217B307E407F50720F0A21B30
:104E3000B30BE40BF50B661F771F881F991F1A949D
:104E400069F760957095809590959B01AC01BD01C7
:104E5000CF010895A29FB001B39FC001A39F700D21
:104E6000811D1124911DB29F700D811D1124911D72
:104E70000895DB018F939F930E94F526BF91AF9118
:104E8000A29F800D911DA39F900DB29F900D1124A4
:104E90000895991B79E004C0991F961708F0961B96
:104EA000881F7A95C9F780950895AA1BBB1B51E10D
:104EB00007C0AA1FBB1FA617B70710F0A61BB70B8A
:104EC000881F991F5A95A9F780959095BC01CD012F
:104ED000089597FB072E16F4009407D077FD09D0AC
:104EE0000E94552707FC05D03EF4909581959F4F71
:104EF0000895709561957F4F0895EE0FFF1F0590FF
:104F0000F491E02D09940E942A27332312F48A1B7E
:104F10009B0B0C948D270E942A27B7FF0895821BB4
:104F2000930B0895FC014150504030F0019006165B
:104F3000D1F73197CF010895882799270895F894DC
:024F4000FFCFA1
:104F42000100000001191A1B1C1D1E1F2021220135
:104F520002011E32D822FC22DD2244164016280805
:104F6200140A0100010202020206060609090909E1
:104F720009090F0F0F0F0F0F151515181919191908
:104F82001919191919192324252525252525303103
:104F92003233343536379091929394959697010235
:104FA2000304050607080900818283E200E900EA9A
:104FB20000B500B600B700CD008301CC008A019293
:104FC2000194012102230224022502260227022A39
:0A4FD20002B300B4006F007000008D
:00000001FF
